{
  "contractName": "SubWallet",
  "abi": [
    {
      "inputs": [],
      "stateMutability": "nonpayable",
      "type": "constructor"
    },
    {
      "anonymous": false,
      "inputs": [],
      "name": "ChangeOwner",
      "type": "event"
    },
    {
      "anonymous": false,
      "inputs": [
        {
          "indexed": false,
          "internalType": "address",
          "name": "",
          "type": "address"
        },
        {
          "indexed": false,
          "internalType": "address",
          "name": "",
          "type": "address"
        },
        {
          "indexed": false,
          "internalType": "uint256",
          "name": "",
          "type": "uint256"
        }
      ],
      "name": "Deposit",
      "type": "event"
    },
    {
      "anonymous": false,
      "inputs": [
        {
          "indexed": false,
          "internalType": "address",
          "name": "",
          "type": "address"
        },
        {
          "indexed": false,
          "internalType": "uint256",
          "name": "",
          "type": "uint256"
        }
      ],
      "name": "Receive",
      "type": "event"
    },
    {
      "anonymous": false,
      "inputs": [],
      "name": "ShortEnd",
      "type": "event"
    },
    {
      "anonymous": false,
      "inputs": [],
      "name": "ShortStart",
      "type": "event"
    },
    {
      "anonymous": false,
      "inputs": [
        {
          "indexed": false,
          "internalType": "address",
          "name": "",
          "type": "address"
        },
        {
          "indexed": false,
          "internalType": "uint256",
          "name": "",
          "type": "uint256"
        }
      ],
      "name": "Withdraw",
      "type": "event"
    },
    {
      "stateMutability": "payable",
      "type": "receive"
    },
    {
      "inputs": [
        {
          "internalType": "address",
          "name": "_initOwner",
          "type": "address"
        }
      ],
      "name": "initialize",
      "outputs": [],
      "stateMutability": "nonpayable",
      "type": "function"
    },
    {
      "inputs": [
        {
          "internalType": "address",
          "name": "_token",
          "type": "address"
        },
        {
          "internalType": "uint16",
          "name": "_mode",
          "type": "uint16"
        },
        {
          "internalType": "uint256",
          "name": "_amount",
          "type": "uint256"
        }
      ],
      "name": "approveTo",
      "outputs": [],
      "stateMutability": "nonpayable",
      "type": "function"
    },
    {
      "inputs": [
        {
          "internalType": "address[]",
          "name": "_tokens",
          "type": "address[]"
        },
        {
          "internalType": "uint256",
          "name": "_amount",
          "type": "uint256"
        },
        {
          "internalType": "uint256",
          "name": "_ethAmount",
          "type": "uint256"
        }
      ],
      "name": "multiApprove",
      "outputs": [],
      "stateMutability": "nonpayable",
      "type": "function"
    },
    {
      "inputs": [
        {
          "internalType": "address",
          "name": "_token",
          "type": "address"
        },
        {
          "internalType": "uint256",
          "name": "_amount",
          "type": "uint256"
        }
      ],
      "name": "depositToken",
      "outputs": [],
      "stateMutability": "nonpayable",
      "type": "function"
    },
    {
      "inputs": [
        {
          "internalType": "address",
          "name": "_token",
          "type": "address"
        },
        {
          "internalType": "uint256",
          "name": "_amount",
          "type": "uint256"
        }
      ],
      "name": "withdrawToken",
      "outputs": [],
      "stateMutability": "nonpayable",
      "type": "function"
    },
    {
      "inputs": [
        {
          "internalType": "address",
          "name": "_collateralToken",
          "type": "address"
        },
        {
          "internalType": "uint256",
          "name": "_collateralAmount",
          "type": "uint256"
        },
        {
          "internalType": "uint256",
          "name": "_ethAmount",
          "type": "uint256"
        }
      ],
      "name": "shortStartETH",
      "outputs": [],
      "stateMutability": "nonpayable",
      "type": "function"
    },
    {
      "inputs": [
        {
          "internalType": "address",
          "name": "_collateralToken",
          "type": "address"
        },
        {
          "internalType": "uint256",
          "name": "_collateralAmount",
          "type": "uint256"
        },
        {
          "internalType": "address",
          "name": "_shortToken",
          "type": "address"
        },
        {
          "internalType": "uint256",
          "name": "_shortAmount",
          "type": "uint256"
        }
      ],
      "name": "shortStart",
      "outputs": [],
      "stateMutability": "nonpayable",
      "type": "function"
    },
    {
      "inputs": [],
      "name": "shortEndEth",
      "outputs": [],
      "stateMutability": "nonpayable",
      "type": "function"
    },
    {
      "inputs": [
        {
          "internalType": "address",
          "name": "_token",
          "type": "address"
        }
      ],
      "name": "getCollateral",
      "outputs": [
        {
          "internalType": "uint256",
          "name": "",
          "type": "uint256"
        }
      ],
      "stateMutability": "view",
      "type": "function"
    },
    {
      "inputs": [
        {
          "internalType": "address",
          "name": "_token",
          "type": "address"
        }
      ],
      "name": "getShort",
      "outputs": [
        {
          "internalType": "address",
          "name": "",
          "type": "address"
        },
        {
          "internalType": "uint256",
          "name": "",
          "type": "uint256"
        },
        {
          "internalType": "uint256",
          "name": "",
          "type": "uint256"
        }
      ],
      "stateMutability": "view",
      "type": "function"
    }
  ],
  "bytecode": "0x608060405234801561001057600080fd5b506001600060146101000a81548160ff0219169083151502179055506139bd8061003b6000396000f3fe6080604052600436106100955760003560e01c8063b322423011610059578063b3224230146101d1578063b6007499146101e8578063be24189614610211578063c4d66de81461023a578063e2f7a48d14610263576100d5565b8063338b5dea146100da578063685b034e146101035780639b56d6c9146101425780639e281a981461017f578063a4360711146101a8576100d5565b366100d5577fd6717f327e0cb88b4a97a7f67a453e9258252c34937ccbdd86de7cb840e7def333346040516100cb9291906127e8565b60405180910390a1005b600080fd5b3480156100e657600080fd5b5061010160048036038101906100fc919061287d565b61028c565b005b34801561010f57600080fd5b5061012a600480360381019061012591906128bd565b6103dc565b604051610139939291906128ea565b60405180910390f35b34801561014e57600080fd5b50610169600480360381019061016491906128bd565b6104b5565b6040516101769190612921565b60405180910390f35b34801561018b57600080fd5b506101a660048036038101906101a1919061287d565b6104fe565b005b3480156101b457600080fd5b506101cf60048036038101906101ca919061293c565b610706565b005b3480156101dd57600080fd5b506101e6610b37565b005b3480156101f457600080fd5b5061020f600480360381019061020a91906129c9565b61105a565b005b34801561021d57600080fd5b5061023860048036038101906102339190612a1c565b611374565b005b34801561024657600080fd5b50610261600480360381019061025c91906128bd565b61140a565b005b34801561026f57600080fd5b5061028a60048036038101906102859190612bdc565b611575565b005b600160009054906101000a900473ffffffffffffffffffffffffffffffffffffffff1673ffffffffffffffffffffffffffffffffffffffff163373ffffffffffffffffffffffffffffffffffffffff161461031c576040517f08c379a000000000000000000000000000000000000000000000000000000000815260040161031390612ca8565b60405180910390fd5b8173ffffffffffffffffffffffffffffffffffffffff166323b872dd3330846040518463ffffffff1660e01b815260040161035993929190612cc8565b6020604051808303816000875af1158015610378573d6000803e3d6000fd5b505050506040513d601f19601f8201168201806040525081019061039c9190612d37565b507f5548c837ab068cf56a2c2479df0882a4922fd203edb7517321831d95078c5f628233836040516103d093929190612cc8565b60405180910390a15050565b600080600080600360008673ffffffffffffffffffffffffffffffffffffffff1673ffffffffffffffffffffffffffffffffffffffff1681526020019081526020016000206040518060600160405290816000820160009054906101000a900473ffffffffffffffffffffffffffffffffffffffff1673ffffffffffffffffffffffffffffffffffffffff1673ffffffffffffffffffffffffffffffffffffffff168152602001600182015481526020016002820154815250509050806000015181602001518260400151935093509350509193909250565b6000600260008373ffffffffffffffffffffffffffffffffffffffff1673ffffffffffffffffffffffffffffffffffffffff168152602001908152602001600020549050919050565b600160009054906101000a900473ffffffffffffffffffffffffffffffffffffffff1673ffffffffffffffffffffffffffffffffffffffff163373ffffffffffffffffffffffffffffffffffffffff161461058e576040517f08c379a000000000000000000000000000000000000000000000000000000000815260040161058590612ca8565b60405180910390fd5b808273ffffffffffffffffffffffffffffffffffffffff166370a08231306040518263ffffffff1660e01b81526004016105c89190612d64565b602060405180830381865afa1580156105e5573d6000803e3d6000fd5b505050506040513d601f19601f820116820180604052508101906106099190612d94565b101561064a576040517f08c379a000000000000000000000000000000000000000000000000000000000815260040161064190612e0d565b60405180910390fd5b8173ffffffffffffffffffffffffffffffffffffffff1663a9059cbb33836040518363ffffffff1660e01b81526004016106859291906127e8565b6020604051808303816000875af11580156106a4573d6000803e3d6000fd5b505050506040513d601f19601f820116820180604052508101906106c89190612d37565b507f884edad9ce6fa2440d8a54cc123490eb96d2768479d49ff9c7366125a942436482826040516106fa9291906127e8565b60405180910390a15050565b600160009054906101000a900473ffffffffffffffffffffffffffffffffffffffff1673ffffffffffffffffffffffffffffffffffffffff163373ffffffffffffffffffffffffffffffffffffffff1614610796576040517f08c379a000000000000000000000000000000000000000000000000000000000815260040161078d90612ca8565b60405180910390fd5b60008060009054906101000a900473ffffffffffffffffffffffffffffffffffffffff1673ffffffffffffffffffffffffffffffffffffffff166313561b556040518163ffffffff1660e01b8152600401602060405180830381865afa158015610804573d6000803e3d6000fd5b505050506040513d601f19601f820116820180604052508101906108289190612e42565b90506000610837828686611c78565b905080610879576040517f08c379a000000000000000000000000000000000000000000000000000000000815260040161087090612ebb565b60405180910390fd5b83600260008773ffffffffffffffffffffffffffffffffffffffff1673ffffffffffffffffffffffffffffffffffffffff1681526020019081526020016000208190555060008060009054906101000a900473ffffffffffffffffffffffffffffffffffffffff1673ffffffffffffffffffffffffffffffffffffffff166349585ec26040518163ffffffff1660e01b8152600401602060405180830381865afa15801561092b573d6000803e3d6000fd5b505050506040513d601f19601f8201168201806040525081019061094f9190612e42565b9050600061095e828587611cfe565b9050806109a0576040517f08c379a000000000000000000000000000000000000000000000000000000000815260040161099790612f27565b60405180910390fd5b60008060009054906101000a900473ffffffffffffffffffffffffffffffffffffffff1673ffffffffffffffffffffffffffffffffffffffff1663c8e1b0626040518163ffffffff1660e01b8152600401602060405180830381865afa158015610a0e573d6000803e3d6000fd5b505050506040513d601f19601f82011682018060405250810190610a329190612e42565b90506000610a41828a89611d85565b600181518110610a5457610a53612f47565b5b6020026020010151905060405180606001604052808a73ffffffffffffffffffffffffffffffffffffffff16815260200188815260200182815250600360003073ffffffffffffffffffffffffffffffffffffffff1673ffffffffffffffffffffffffffffffffffffffff16815260200190815260200160002060008201518160000160006101000a81548173ffffffffffffffffffffffffffffffffffffffff021916908373ffffffffffffffffffffffffffffffffffffffff1602179055506020820151816001015560408201518160020155905050505050505050505050565b600160009054906101000a900473ffffffffffffffffffffffffffffffffffffffff1673ffffffffffffffffffffffffffffffffffffffff163373ffffffffffffffffffffffffffffffffffffffff1614610bc7576040517f08c379a0000000000000000000000000000000000000000000000000000000008152600401610bbe90612ca8565b60405180910390fd5b6000600360003073ffffffffffffffffffffffffffffffffffffffff1673ffffffffffffffffffffffffffffffffffffffff1681526020019081526020016000206040518060600160405290816000820160009054906101000a900473ffffffffffffffffffffffffffffffffffffffff1673ffffffffffffffffffffffffffffffffffffffff1673ffffffffffffffffffffffffffffffffffffffff16815260200160018201548152602001600282015481525050905060008060009054906101000a900473ffffffffffffffffffffffffffffffffffffffff1673ffffffffffffffffffffffffffffffffffffffff1663c8e1b0626040518163ffffffff1660e01b8152600401602060405180830381865afa158015610ced573d6000803e3d6000fd5b505050506040513d601f19601f82011682018060405250810190610d119190612e42565b9050610d268183600001518460200151612014565b5060008060009054906101000a900473ffffffffffffffffffffffffffffffffffffffff1673ffffffffffffffffffffffffffffffffffffffff166349585ec26040518163ffffffff1660e01b8152600401602060405180830381865afa158015610d95573d6000803e3d6000fd5b505050506040513d601f19601f82011682018060405250810190610db99190612e42565b905060008060009054906101000a900473ffffffffffffffffffffffffffffffffffffffff1673ffffffffffffffffffffffffffffffffffffffff166313561b556040518163ffffffff1660e01b8152600401602060405180830381865afa158015610e29573d6000803e3d6000fd5b505050506040513d601f19601f82011682018060405250810190610e4d9190612e42565b90506000610e60838387602001516122a4565b905080610ea2576040517f08c379a0000000000000000000000000000000000000000000000000000000008152600401610e9990612fc2565b60405180910390fd5b6000610ef6838760000151600260008a6000015173ffffffffffffffffffffffffffffffffffffffff1673ffffffffffffffffffffffffffffffffffffffff1681526020019081526020016000205461232b565b905080610f38576040517f08c379a0000000000000000000000000000000000000000000000000000000008152600401610f2f9061302e565b60405180910390fd5b600060026000886000015173ffffffffffffffffffffffffffffffffffffffff1673ffffffffffffffffffffffffffffffffffffffff168152602001908152602001600020819055506040518060600160405280600073ffffffffffffffffffffffffffffffffffffffff168152602001600081526020016000815250600360003073ffffffffffffffffffffffffffffffffffffffff1673ffffffffffffffffffffffffffffffffffffffff16815260200190815260200160002060008201518160000160006101000a81548173ffffffffffffffffffffffffffffffffffffffff021916908373ffffffffffffffffffffffffffffffffffffffff1602179055506020820151816001015560408201518160020155905050505050505050565b600160009054906101000a900473ffffffffffffffffffffffffffffffffffffffff1673ffffffffffffffffffffffffffffffffffffffff163373ffffffffffffffffffffffffffffffffffffffff16146110ea576040517f08c379a00000000000000000000000000000000000000000000000000000000081526004016110e190612ca8565b60405180910390fd5b6000808361ffff160361118d5760008054906101000a900473ffffffffffffffffffffffffffffffffffffffff1673ffffffffffffffffffffffffffffffffffffffff166313561b556040518163ffffffff1660e01b8152600401602060405180830381865afa158015611162573d6000803e3d6000fd5b505050506040513d601f19601f820116820180604052508101906111869190612e42565b905061122c565b60018361ffff160361122b5760008054906101000a900473ffffffffffffffffffffffffffffffffffffffff1673ffffffffffffffffffffffffffffffffffffffff1663c8e1b0626040518163ffffffff1660e01b8152600401602060405180830381865afa158015611204573d6000803e3d6000fd5b505050506040513d601f19601f820116820180604052508101906112289190612e42565b90505b5b60008473ffffffffffffffffffffffffffffffffffffffff1662030d40838560405160240161125c9291906127e8565b6040516020818303038152906040527f095ea7b3000000000000000000000000000000000000000000000000000000007bffffffffffffffffffffffffffffffffffffffffffffffffffffffff19166020820180517bffffffffffffffffffffffffffffffffffffffffffffffffffffffff83818316178352505050506040516112e691906130c8565b60006040518083038160008787f1925050503d8060008114611324576040519150601f19603f3d011682016040523d82523d6000602084013e611329565b606091505b505090508061136d576040517f08c379a00000000000000000000000000000000000000000000000000000000081526004016113649061312b565b60405180910390fd5b5050505050565b600160009054906101000a900473ffffffffffffffffffffffffffffffffffffffff1673ffffffffffffffffffffffffffffffffffffffff163373ffffffffffffffffffffffffffffffffffffffff1614611404576040517f08c379a00000000000000000000000000000000000000000000000000000000081526004016113fb90612ca8565b60405180910390fd5b50505050565b60001515600060149054906101000a900460ff16151514611460576040517f08c379a000000000000000000000000000000000000000000000000000000000815260040161145790613197565b60405180910390fd5b600073ffffffffffffffffffffffffffffffffffffffff16600160009054906101000a900473ffffffffffffffffffffffffffffffffffffffff1673ffffffffffffffffffffffffffffffffffffffff16146114f1576040517f08c379a00000000000000000000000000000000000000000000000000000000081526004016114e890613203565b60405180910390fd5b336000806101000a81548173ffffffffffffffffffffffffffffffffffffffff021916908373ffffffffffffffffffffffffffffffffffffffff16021790555080600160006101000a81548173ffffffffffffffffffffffffffffffffffffffff021916908373ffffffffffffffffffffffffffffffffffffffff16021790555050565b600160009054906101000a900473ffffffffffffffffffffffffffffffffffffffff1673ffffffffffffffffffffffffffffffffffffffff163373ffffffffffffffffffffffffffffffffffffffff1614611605576040517f08c379a00000000000000000000000000000000000000000000000000000000081526004016115fc90612ca8565b60405180910390fd5b60008060009054906101000a900473ffffffffffffffffffffffffffffffffffffffff1673ffffffffffffffffffffffffffffffffffffffff1663c8e1b0626040518163ffffffff1660e01b8152600401602060405180830381865afa158015611673573d6000803e3d6000fd5b505050506040513d601f19601f820116820180604052508101906116979190612e42565b905060008060009054906101000a900473ffffffffffffffffffffffffffffffffffffffff1673ffffffffffffffffffffffffffffffffffffffff166313561b556040518163ffffffff1660e01b8152600401602060405180830381865afa158015611707573d6000803e3d6000fd5b505050506040513d601f19601f8201168201806040525081019061172b9190612e42565b905060008060009054906101000a900473ffffffffffffffffffffffffffffffffffffffff1673ffffffffffffffffffffffffffffffffffffffff1663f63c13a46040518163ffffffff1660e01b8152600401602060405180830381865afa15801561179b573d6000803e3d6000fd5b505050506040513d601f19601f820116820180604052508101906117bf9190612e42565b905060008060009054906101000a900473ffffffffffffffffffffffffffffffffffffffff1673ffffffffffffffffffffffffffffffffffffffff166349585ec26040518163ffffffff1660e01b8152600401602060405180830381865afa15801561182f573d6000803e3d6000fd5b505050506040513d601f19601f820116820180604052508101906118539190612e42565b905060005b8751811015611b2c57600088828151811061187657611875612f47565b5b602002602001015173ffffffffffffffffffffffffffffffffffffffff1662030d40878a6040516024016118ab9291906127e8565b6040516020818303038152906040527f095ea7b3000000000000000000000000000000000000000000000000000000007bffffffffffffffffffffffffffffffffffffffffffffffffffffffff19166020820180517bffffffffffffffffffffffffffffffffffffffffffffffffffffffff838183161783525050505060405161193591906130c8565b60006040518083038160008787f1925050503d8060008114611973576040519150601f19603f3d011682016040523d82523d6000602084013e611978565b606091505b50509050806119bc576040517f08c379a00000000000000000000000000000000000000000000000000000000081526004016119b39061326f565b60405180910390fd5b60008983815181106119d1576119d0612f47565b5b602002602001015173ffffffffffffffffffffffffffffffffffffffff1662030d40878b604051602401611a069291906127e8565b6040516020818303038152906040527f095ea7b3000000000000000000000000000000000000000000000000000000007bffffffffffffffffffffffffffffffffffffffffffffffffffffffff19166020820180517bffffffffffffffffffffffffffffffffffffffffffffffffffffffff8381831617835250505050604051611a9091906130c8565b60006040518083038160008787f1925050503d8060008114611ace576040519150601f19603f3d011682016040523d82523d6000602084013e611ad3565b606091505b5050905080611b17576040517f08c379a0000000000000000000000000000000000000000000000000000000008152600401611b0e906132db565b60405180910390fd5b50508080611b249061332a565b915050611858565b5060008273ffffffffffffffffffffffffffffffffffffffff1662030d408388604051602401611b5d9291906127e8565b6040516020818303038152906040527fc04a8a10000000000000000000000000000000000000000000000000000000007bffffffffffffffffffffffffffffffffffffffffffffffffffffffff19166020820180517bffffffffffffffffffffffffffffffffffffffffffffffffffffffff8381831617835250505050604051611be791906130c8565b60006040518083038160008787f1925050503d8060008114611c25576040519150601f19603f3d011682016040523d82523d6000602084013e611c2a565b606091505b5050905080611c6e576040517f08c379a0000000000000000000000000000000000000000000000000000000008152600401611c65906133be565b60405180910390fd5b5050505050505050565b60008373ffffffffffffffffffffffffffffffffffffffff1663e8eda9df84843060006040518563ffffffff1660e01b8152600401611cba9493929190613423565b600060405180830381600087803b158015611cd457600080fd5b505af1925050508015611ce5575060015b611cf25760009050611cf7565b600190505b9392505050565b60008373ffffffffffffffffffffffffffffffffffffffff166366514c978484600260006040518563ffffffff1660e01b8152600401611d4194939291906134a3565b600060405180830381600087803b158015611d5b57600080fd5b505af1925050508015611d6c575060015b611d795760009050611d7e565b600190505b9392505050565b60606000611d948585856123c0565b600181518110611da757611da6612f47565b5b602002602001015190506000600267ffffffffffffffff811115611dce57611dcd612a99565b5b604051908082528060200260200182016040528015611dfc5781602001602082028036833780820191505090505b5090508573ffffffffffffffffffffffffffffffffffffffff1663ad5c46486040518163ffffffff1660e01b8152600401602060405180830381865afa158015611e4a573d6000803e3d6000fd5b505050506040513d601f19601f82011682018060405250810190611e6e9190612e42565b81600081518110611e8257611e81612f47565b5b602002602001019073ffffffffffffffffffffffffffffffffffffffff16908173ffffffffffffffffffffffffffffffffffffffff16815250508481600181518110611ed157611ed0612f47565b5b602002602001019073ffffffffffffffffffffffffffffffffffffffff16908173ffffffffffffffffffffffffffffffffffffffff16815250506000606442611f1a91906134e8565b905060008773ffffffffffffffffffffffffffffffffffffffff16637ff36ab587868630876040518663ffffffff1660e01b8152600401611f5e9493929190613651565b60006040518083038185885af1158015611f7c573d6000803e3d6000fd5b50505050506040513d6000823e3d601f19601f82011682018060405250810190611fa69190613760565b9050600081600081518110611fbe57611fbd612f47565b5b602002602001015103612006576040517f08c379a0000000000000000000000000000000000000000000000000000000008152600401611ffd906137f5565b60405180910390fd5b809450505050509392505050565b606060006120238585856125a7565b60008151811061203657612035612f47565b5b602002602001015190506000600267ffffffffffffffff81111561205d5761205c612a99565b5b60405190808252806020026020018201604052801561208b5781602001602082028036833780820191505090505b50905084816000815181106120a3576120a2612f47565b5b602002602001019073ffffffffffffffffffffffffffffffffffffffff16908173ffffffffffffffffffffffffffffffffffffffff16815250508573ffffffffffffffffffffffffffffffffffffffff1663ad5c46486040518163ffffffff1660e01b8152600401602060405180830381865afa158015612128573d6000803e3d6000fd5b505050506040513d601f19601f8201168201806040525081019061214c9190612e42565b816001815181106121605761215f612f47565b5b602002602001019073ffffffffffffffffffffffffffffffffffffffff16908173ffffffffffffffffffffffffffffffffffffffff168152505060006064426121a991906134e8565b905060008773ffffffffffffffffffffffffffffffffffffffff166318cbafe585888630876040518663ffffffff1660e01b81526004016121ee959493929190613815565b6000604051808303816000875af115801561220d573d6000803e3d6000fd5b505050506040513d6000823e3d601f19601f820116820180604052508101906122369190613760565b905060008160008151811061224e5761224d612f47565b5b602002602001015103612296576040517f08c379a000000000000000000000000000000000000000000000000000000000815260040161228d906138bb565b60405180910390fd5b809450505050509392505050565b60008373ffffffffffffffffffffffffffffffffffffffff166302c5fcf88385856002306040518663ffffffff1660e01b81526004016122e794939291906138db565b6000604051808303818588803b15801561230057600080fd5b505af193505050508015612312575060015b61231f5760009050612324565b600190505b9392505050565b60008373ffffffffffffffffffffffffffffffffffffffff166369328dec8484306040518463ffffffff1660e01b815260040161236a93929190613920565b6020604051808303816000875af19250505080156123a657506040513d601f19601f820116820180604052508101906123a39190612d94565b60015b6123b357600090506123b9565b50600190505b9392505050565b60606000600267ffffffffffffffff8111156123df576123de612a99565b5b60405190808252806020026020018201604052801561240d5781602001602082028036833780820191505090505b5090508473ffffffffffffffffffffffffffffffffffffffff1663ad5c46486040518163ffffffff1660e01b8152600401602060405180830381865afa15801561245b573d6000803e3d6000fd5b505050506040513d601f19601f8201168201806040525081019061247f9190612e42565b8160008151811061249357612492612f47565b5b602002602001019073ffffffffffffffffffffffffffffffffffffffff16908173ffffffffffffffffffffffffffffffffffffffff168152505083816001815181106124e2576124e1612f47565b5b602002602001019073ffffffffffffffffffffffffffffffffffffffff16908173ffffffffffffffffffffffffffffffffffffffff16815250508473ffffffffffffffffffffffffffffffffffffffff1663d06ca61f84836040518363ffffffff1660e01b8152600401612557929190613957565b600060405180830381865afa158015612574573d6000803e3d6000fd5b505050506040513d6000823e3d601f19601f8201168201806040525081019061259d9190613760565b9150509392505050565b60606000600267ffffffffffffffff8111156125c6576125c5612a99565b5b6040519080825280602002602001820160405280156125f45781602001602082028036833780820191505090505b509050838160008151811061260c5761260b612f47565b5b602002602001019073ffffffffffffffffffffffffffffffffffffffff16908173ffffffffffffffffffffffffffffffffffffffff16815250508473ffffffffffffffffffffffffffffffffffffffff1663ad5c46486040518163ffffffff1660e01b8152600401602060405180830381865afa158015612691573d6000803e3d6000fd5b505050506040513d601f19601f820116820180604052508101906126b59190612e42565b816001815181106126c9576126c8612f47565b5b602002602001019073ffffffffffffffffffffffffffffffffffffffff16908173ffffffffffffffffffffffffffffffffffffffff16815250508473ffffffffffffffffffffffffffffffffffffffff16631f00ca7484836040518363ffffffff1660e01b815260040161273e929190613957565b600060405180830381865afa15801561275b573d6000803e3d6000fd5b505050506040513d6000823e3d601f19601f820116820180604052508101906127849190613760565b9150509392505050565b600073ffffffffffffffffffffffffffffffffffffffff82169050919050565b60006127b98261278e565b9050919050565b6127c9816127ae565b82525050565b6000819050919050565b6127e2816127cf565b82525050565b60006040820190506127fd60008301856127c0565b61280a60208301846127d9565b9392505050565b6000604051905090565b600080fd5b600080fd5b61282e816127ae565b811461283957600080fd5b50565b60008135905061284b81612825565b92915050565b61285a816127cf565b811461286557600080fd5b50565b60008135905061287781612851565b92915050565b600080604083850312156128945761289361281b565b5b60006128a28582860161283c565b92505060206128b385828601612868565b9150509250929050565b6000602082840312156128d3576128d261281b565b5b60006128e18482850161283c565b91505092915050565b60006060820190506128ff60008301866127c0565b61290c60208301856127d9565b61291960408301846127d9565b949350505050565b600060208201905061293660008301846127d9565b92915050565b6000806000606084860312156129555761295461281b565b5b60006129638682870161283c565b935050602061297486828701612868565b925050604061298586828701612868565b9150509250925092565b600061ffff82169050919050565b6129a68161298f565b81146129b157600080fd5b50565b6000813590506129c38161299d565b92915050565b6000806000606084860312156129e2576129e161281b565b5b60006129f08682870161283c565b9350506020612a01868287016129b4565b9250506040612a1286828701612868565b9150509250925092565b60008060008060808587031215612a3657612a3561281b565b5b6000612a448782880161283c565b9450506020612a5587828801612868565b9350506040612a668782880161283c565b9250506060612a7787828801612868565b91505092959194509250565b600080fd5b6000601f19601f8301169050919050565b7f4e487b7100000000000000000000000000000000000000000000000000000000600052604160045260246000fd5b612ad182612a88565b810181811067ffffffffffffffff82111715612af057612aef612a99565b5b80604052505050565b6000612b03612811565b9050612b0f8282612ac8565b919050565b600067ffffffffffffffff821115612b2f57612b2e612a99565b5b602082029050602081019050919050565b600080fd5b6000612b58612b5384612b14565b612af9565b90508083825260208201905060208402830185811115612b7b57612b7a612b40565b5b835b81811015612ba45780612b90888261283c565b845260208401935050602081019050612b7d565b5050509392505050565b600082601f830112612bc357612bc2612a83565b5b8135612bd3848260208601612b45565b91505092915050565b600080600060608486031215612bf557612bf461281b565b5b600084013567ffffffffffffffff811115612c1357612c12612820565b5b612c1f86828701612bae565b9350506020612c3086828701612868565b9250506040612c4186828701612868565b9150509250925092565b600082825260208201905092915050565b7f4552524f523a204f6e6c79204f776e6572000000000000000000000000000000600082015250565b6000612c92601183612c4b565b9150612c9d82612c5c565b602082019050919050565b60006020820190508181036000830152612cc181612c85565b9050919050565b6000606082019050612cdd60008301866127c0565b612cea60208301856127c0565b612cf760408301846127d9565b949350505050565b60008115159050919050565b612d1481612cff565b8114612d1f57600080fd5b50565b600081519050612d3181612d0b565b92915050565b600060208284031215612d4d57612d4c61281b565b5b6000612d5b84828501612d22565b91505092915050565b6000602082019050612d7960008301846127c0565b92915050565b600081519050612d8e81612851565b92915050565b600060208284031215612daa57612da961281b565b5b6000612db884828501612d7f565b91505092915050565b7f4e6f7420656e6f75676820746f6b656e00000000000000000000000000000000600082015250565b6000612df7601083612c4b565b9150612e0282612dc1565b602082019050919050565b60006020820190508181036000830152612e2681612dea565b9050919050565b600081519050612e3c81612825565b92915050565b600060208284031215612e5857612e5761281b565b5b6000612e6684828501612e2d565b91505092915050565b7f537570706c79204661696c656400000000000000000000000000000000000000600082015250565b6000612ea5600d83612c4b565b9150612eb082612e6f565b602082019050919050565b60006020820190508181036000830152612ed481612e98565b9050919050565b7f426f72726f77204661696c656400000000000000000000000000000000000000600082015250565b6000612f11600d83612c4b565b9150612f1c82612edb565b602082019050919050565b60006020820190508181036000830152612f4081612f04565b9050919050565b7f4e487b7100000000000000000000000000000000000000000000000000000000600052603260045260246000fd5b7f5265706179204661696c00000000000000000000000000000000000000000000600082015250565b6000612fac600a83612c4b565b9150612fb782612f76565b602082019050919050565b60006020820190508181036000830152612fdb81612f9f565b9050919050565b7f5769746864726177204661696c00000000000000000000000000000000000000600082015250565b6000613018600d83612c4b565b915061302382612fe2565b602082019050919050565b600060208201905081810360008301526130478161300b565b9050919050565b600081519050919050565b600081905092915050565b60005b83811015613082578082015181840152602081019050613067565b83811115613091576000848401525b50505050565b60006130a28261304e565b6130ac8185613059565b93506130bc818560208601613064565b80840191505092915050565b60006130d48284613097565b915081905092915050565b7f4641494c45440000000000000000000000000000000000000000000000000000600082015250565b6000613115600683612c4b565b9150613120826130df565b602082019050919050565b6000602082019050818103600083015261314481613108565b9050919050565b7f5468697320697320746865206261736520636f6e747261637400000000000000600082015250565b6000613181601983612c4b565b915061318c8261314b565b602082019050919050565b600060208201905081810360008301526131b081613174565b9050919050565b7f416c726561647920696e697469616c697a656400000000000000000000000000600082015250565b60006131ed601383612c4b565b91506131f8826131b7565b602082019050919050565b6000602082019050818103600083015261321c816131e0565b9050919050565b7f556e69204661696c656400000000000000000000000000000000000000000000600082015250565b6000613259600a83612c4b565b915061326482613223565b602082019050919050565b600060208201905081810360008301526132888161324c565b9050919050565b7f506f6f6c204661696c6564000000000000000000000000000000000000000000600082015250565b60006132c5600b83612c4b565b91506132d08261328f565b602082019050919050565b600060208201905081810360008301526132f4816132b8565b9050919050565b7f4e487b7100000000000000000000000000000000000000000000000000000000600052601160045260246000fd5b6000613335826127cf565b91507fffffffffffffffffffffffffffffffffffffffffffffffffffffffffffffffff8203613367576133666132fb565b5b600182019050919050565b7f416c6c6f77204661696c65640000000000000000000000000000000000000000600082015250565b60006133a8600c83612c4b565b91506133b382613372565b602082019050919050565b600060208201905081810360008301526133d78161339b565b9050919050565b6000819050919050565b6000819050919050565b600061340d613408613403846133de565b6133e8565b61298f565b9050919050565b61341d816133f2565b82525050565b600060808201905061343860008301876127c0565b61344560208301866127d9565b61345260408301856127c0565b61345f6060830184613414565b95945050505050565b6000819050919050565b600061348d61348861348384613468565b6133e8565b6127cf565b9050919050565b61349d81613472565b82525050565b60006080820190506134b860008301876127c0565b6134c560208301866127d9565b6134d26040830185613494565b6134df6060830184613414565b95945050505050565b60006134f3826127cf565b91506134fe836127cf565b9250827fffffffffffffffffffffffffffffffffffffffffffffffffffffffffffffffff03821115613533576135326132fb565b5b828201905092915050565b600081519050919050565b600082825260208201905092915050565b6000819050602082019050919050565b613573816127ae565b82525050565b6000613585838361356a565b60208301905092915050565b6000602082019050919050565b60006135a98261353e565b6135b38185613549565b93506135be8361355a565b8060005b838110156135ef5781516135d68882613579565b97506135e183613591565b9250506001810190506135c2565b5085935050505092915050565b600061361761361261360d8461278e565b6133e8565b61278e565b9050919050565b6000613629826135fc565b9050919050565b600061363b8261361e565b9050919050565b61364b81613630565b82525050565b600060808201905061366660008301876127d9565b8181036020830152613678818661359e565b90506136876040830185613642565b61369460608301846127d9565b95945050505050565b600067ffffffffffffffff8211156136b8576136b7612a99565b5b602082029050602081019050919050565b60006136dc6136d78461369d565b612af9565b905080838252602082019050602084028301858111156136ff576136fe612b40565b5b835b8181101561372857806137148882612d7f565b845260208401935050602081019050613701565b5050509392505050565b600082601f83011261374757613746612a83565b5b81516137578482602086016136c9565b91505092915050565b6000602082840312156137765761377561281b565b5b600082015167ffffffffffffffff81111561379457613793612820565b5b6137a084828501613732565b91505092915050565b7f455448203d3e20544f4b454e204641494c000000000000000000000000000000600082015250565b60006137df601183612c4b565b91506137ea826137a9565b602082019050919050565b6000602082019050818103600083015261380e816137d2565b9050919050565b600060a08201905061382a60008301886127d9565b61383760208301876127d9565b8181036040830152613849818661359e565b905061385860608301856127c0565b61386560808301846127d9565b9695505050505050565b7f544f4b454e203d3e20455448204641494c000000000000000000000000000000600082015250565b60006138a5601183612c4b565b91506138b08261386f565b602082019050919050565b600060208201905081810360008301526138d481613898565b9050919050565b60006080820190506138f060008301876127c0565b6138fd60208301866127d9565b61390a6040830185613494565b61391760608301846127c0565b95945050505050565b600060608201905061393560008301866127c0565b61394260208301856127d9565b61394f60408301846127c0565b949350505050565b600060408201905061396c60008301856127d9565b818103602083015261397e818461359e565b9050939250505056fea2646970667358221220fb65e9479d77fd51d3e0fc5fed234dfd68a282aa5ce79aa80e452613133eff9064736f6c634300080e0033",
  "immutableReferences": {},
  "source": "// SPDX-License-Identifier: MIT\r\npragma solidity >=0.7.0 <0.9.0;\r\n\r\nimport \"@openzeppelin/contracts/access/Ownable.sol\";\r\nimport \"@openzeppelin/contracts/token/ERC20/utils/SafeERC20.sol\";\r\n\r\ninterface Factory {\r\n    function getUni() external view returns (address);\r\n\r\n    function getAaveAllow() external view returns (address);\r\n\r\n    function getAaveEth() external view returns (address);\r\n\r\n    function getAavePool() external view returns (address);\r\n\r\n    function getCommissionFee() external view returns (address);\r\n}\r\n\r\ninterface UniswapV2Router {\r\n    function WETH() external pure returns (address);\r\n\r\n    function getAmountsOut(uint amountIn, address[] memory path) external view returns (uint[] memory amounts);\r\n\r\n    function getAmountsIn(uint amountOut, address[] memory path) external view returns (uint[] memory amounts);\r\n\r\n    // ETH to DAI\r\n    function swapExactETHForTokens(uint amountOutMin, address[] calldata path, address to, uint deadline)\r\n    external\r\n    payable\r\n    returns (uint[] memory amounts);\r\n\r\n    // DAI to ETH\r\n    function swapExactTokensForETH(uint amountIn, uint amountOutMin, address[] calldata path, address to, uint deadline)\r\n    external\r\n    returns (uint[] memory amounts);\r\n}\r\n\r\ninterface AaveETHRouter {\r\n    function depositETH(\r\n        address lendingPool,\r\n        address onBehalfOf,\r\n        uint16 referralCode\r\n    ) external payable;\r\n\r\n    function withdrawETH(\r\n        address lendingPool,\r\n        uint256 amount,\r\n        address onBehalfOf\r\n    ) external;\r\n\r\n    function repayETH(\r\n        address lendingPool,\r\n        uint256 amount,\r\n        uint256 rateMode,\r\n        address onBehalfOf\r\n    ) external payable;\r\n\r\n    function borrowETH(\r\n        address lendingPool,\r\n        uint256 amount,\r\n        uint256 interesRateMode,\r\n        uint16 referralCode\r\n    ) external;\r\n}\r\n\r\ninterface AavePoolRouter {\r\n    function deposit(\r\n        address asset,\r\n        uint256 amount,\r\n        address onBehalfOf,\r\n        uint16 referralCode\r\n    ) external;\r\n\r\n    function withdraw(\r\n        address asset,\r\n        uint256 amount,\r\n        address to\r\n    ) external returns (uint256);\r\n\r\n    function borrow(\r\n        address asset,\r\n        uint256 amount,\r\n        uint256 interestRateMode,\r\n        uint16 referralCode,\r\n        address onBehalfOf\r\n    ) external;\r\n\r\n    function repay(\r\n        address asset,\r\n        uint256 amount,\r\n        uint256 rateMode,\r\n        address onBehalfOf\r\n    ) external returns (uint256);\r\n}\r\n\r\ncontract SubWallet {\r\n    // Events\r\n    event Deposit(address, address, uint256);\r\n    event Withdraw(address, uint256);\r\n    event ShortStart();\r\n    event ShortEnd();\r\n    event ChangeOwner();\r\n    event Receive(address, uint256);\r\n\r\n    // Convertor\r\n    using SafeERC20 for IERC20;\r\n\r\n    // Clone\r\n    // -------------------------------------------------------------------------\r\n    Factory private _factory;\r\n    bool private _isBase;\r\n\r\n    address private _owner;\r\n    modifier onlyOwner() {\r\n        require(msg.sender == _owner, \"ERROR: Only Owner\");\r\n        _;\r\n    }\r\n\r\n    constructor() {// base contract\r\n        _isBase = true;\r\n    }\r\n\r\n    // only use at first\r\n    function initialize(address _initOwner) external {\r\n        require(_isBase == false, \"This is the base contract\");\r\n        require(_owner == address(0), \"Already initialized\");\r\n        _factory = Factory(msg.sender);\r\n        _owner = _initOwner;\r\n    }\r\n\r\n    // Wallet Field\r\n    // -------------------------------------------------------------------------\r\n    // User Info\r\n    mapping(address => uint256) collateralList; // DepositToken => Collateral Amount\r\n    mapping(address => Short) shortList; // ShortToken => Short Amount\r\n    Commission[] commissions; // CollateralToken => Commission\r\n\r\n    struct Short {\r\n        address token; //  \r\n        uint256 amount; //   ETH\r\n        uint256 price; //   Token /    \r\n    }\r\n\r\n    struct Commission {\r\n        address token;\r\n        uint256 fee;\r\n    }\r\n\r\n    // Token action\r\n    // -------------------------------------------------------------------------\r\n    function approveTo(address _token, uint16 _mode, uint _amount) external onlyOwner {\r\n        address to;\r\n        if (_mode == 0) {\r\n            to = _factory.getAavePool();\r\n        } else if (_mode == 1) {\r\n            to = _factory.getUni();\r\n        }\r\n        (bool success,) = address(_token).call{gas : 200000}(\r\n            abi.encodeWithSignature(\"approve(address,uint256)\", to, _amount)\r\n        );\r\n        require(success, \"FAILED\");\r\n    }\r\n\r\n    function multiApprove(address[] memory _tokens, uint256 _amount, uint256 _ethAmount) external onlyOwner {\r\n        address uniswap = _factory.getUni();\r\n        address aavePool = _factory.getAavePool();\r\n        address aaveAllow = _factory.getAaveAllow();\r\n        address aaveEth = _factory.getAaveEth();\r\n\r\n        for (uint i = 0; i < _tokens.length; i++) {\r\n            (bool sucUni,) = address(_tokens[i]).call{gas : 200000}(\r\n                abi.encodeWithSignature(\"approve(address,uint256)\", uniswap, _amount)\r\n            );\r\n            require(sucUni, \"Uni Failed\");\r\n            (bool sucPool,) = address(_tokens[i]).call{gas : 200000}(\r\n                abi.encodeWithSignature(\"approve(address,uint256)\", aavePool, _amount)\r\n            );\r\n            require(sucPool, \"Pool Failed\");\r\n        }\r\n\r\n        (bool sucAllow,) = aaveAllow.call{gas : 200000}(\r\n            abi.encodeWithSignature(\"approveDelegation(address,uint256)\", aaveEth, _ethAmount)\r\n        );\r\n        require(sucAllow, \"Allow Failed\");\r\n    }\r\n\r\n    function depositToken(address _token, uint256 _amount) external onlyOwner {\r\n        IERC20(_token).transferFrom(msg.sender, address(this), _amount);\r\n        emit Deposit(_token, msg.sender, _amount);\r\n    }\r\n\r\n    function withdrawToken(address _token, uint256 _amount) external onlyOwner {\r\n        require(IERC20(_token).balanceOf(address(this)) >= _amount, \"Not enough token\");\r\n        IERC20(_token).transfer(msg.sender, _amount);\r\n        emit Withdraw(_token, _amount);\r\n    }\r\n\r\n    // Product action\r\n    // -------------------------------------------------------------------------\r\n    function shortStartETH(address _collateralToken, uint256 _collateralAmount, uint256 _ethAmount) external onlyOwner {\r\n        AavePoolRouter pool = AavePoolRouter(_factory.getAavePool());\r\n        bool sResult = _supply(pool, _collateralToken, _collateralAmount);\r\n        require(sResult, \"Supply Failed\");\r\n        collateralList[_collateralToken] = _collateralAmount;\r\n\r\n        AaveETHRouter gate = AaveETHRouter(_factory.getAaveEth());\r\n        bool bResult = _borrowEth(gate, pool, _ethAmount);\r\n        require(bResult, \"Borrow Failed\");\r\n\r\n        UniswapV2Router uni = UniswapV2Router(_factory.getUni());\r\n        uint changeAmount = _ethToToken(uni, _collateralToken, _ethAmount)[1];\r\n        shortList[address(this)] = Short(_collateralToken, _ethAmount, changeAmount);\r\n    }\r\n\r\n    // token to token\r\n    function shortStart(address _collateralToken, uint256 _collateralAmount, address _shortToken, uint256 _shortAmount) external onlyOwner {\r\n    }\r\n\r\n    function _supply(AavePoolRouter router, address _token, uint256 _amount) internal returns (bool) {\r\n        try router.deposit(_token, _amount, address(this), 0) {\r\n            return true;\r\n        }\r\n        catch {\r\n            return false;\r\n        }\r\n    }\r\n\r\n    function _borrowEth(AaveETHRouter router, AavePoolRouter pool, uint256 _ethAmount) internal returns (bool) {\r\n        try router.borrowETH(address(pool), _ethAmount, 2, 0) {\r\n            return true;\r\n        }\r\n        catch {\r\n            return false;\r\n        }\r\n    }\r\n\r\n    function _borrow(address _token, uint256 _amount) internal returns (bool) {\r\n        return false;\r\n    }\r\n\r\n    // ETH => DAI\r\n    function _ethToToken(UniswapV2Router router, address _token, uint256 _ethAmount) internal returns (uint[] memory) {\r\n        uint tokenAmount = _getAmountToken(router, _token, _ethAmount)[1];\r\n        address[] memory path = new address[](2);\r\n        path[0] = router.WETH();\r\n        path[1] = _token;\r\n        uint deadline = block.timestamp + 100;\r\n\r\n        uint[] memory amounts = router.swapExactETHForTokens{value : uint(_ethAmount)}(tokenAmount, path, payable(address(this)), deadline);\r\n        require(amounts[0] != 0, \"ETH => TOKEN FAIL\");\r\n\r\n        return amounts;\r\n    }\r\n\r\n    function _getAmountToken(UniswapV2Router router, address _token, uint256 _ethAmount) internal view returns (uint[] memory) {\r\n        address[] memory path = new address[](2);\r\n        path[0] = router.WETH();\r\n        path[1] = _token;\r\n\r\n        return router.getAmountsOut(_ethAmount, path);\r\n    }\r\n\r\n    // -------------------------------------------------------------------------\r\n    function shortEndEth() external onlyOwner {\r\n        Short memory shorted = shortList[address(this)];\r\n\r\n        UniswapV2Router uni = UniswapV2Router(_factory.getUni());\r\n        _tokenToEth(uni, shorted.token, shorted.amount);\r\n\r\n        AaveETHRouter gate = AaveETHRouter(_factory.getAaveEth());\r\n        AavePoolRouter pool = AavePoolRouter(_factory.getAavePool());\r\n        bool rResult = _repayEth(gate, pool, shorted.amount);\r\n        require(rResult, \"Repay Fail\");\r\n\r\n        bool wResult = _withdraw(pool, shorted.token, collateralList[shorted.token]);\r\n        require(wResult, \"Withdraw Fail\");\r\n\r\n        collateralList[shorted.token] = 0;\r\n        shortList[address(this)] = Short(address(0), 0, 0);\r\n    }\r\n\r\n    // DAI to Token / ETH\r\n    // DAI => ETH\r\n    function _tokenToEth(UniswapV2Router router,address _token, uint256 _ethAmount) internal returns (uint[] memory) {\r\n        uint tokenAmount = _getAmountEth(router, _token, _ethAmount)[0];\r\n\r\n        address[] memory path = new address[](2);\r\n        path[0] = _token;\r\n        path[1] = router.WETH();\r\n        uint deadline = block.timestamp + 100;\r\n\r\n        uint[] memory amounts = router.swapExactTokensForETH(tokenAmount, _ethAmount, path, address(this), deadline);\r\n        require(amounts[0] != 0, \"TOKEN => ETH FAIL\");\r\n\r\n        return amounts;\r\n    }\r\n\r\n    function _getAmountEth(UniswapV2Router router, address _token, uint256 _ethAmount) internal view returns (uint[] memory) {\r\n        address[] memory path = new address[](2);\r\n        path[0] = _token;\r\n        path[1] = router.WETH();\r\n\r\n        return router.getAmountsIn(_ethAmount, path);\r\n    }\r\n\r\n    function _repayEth(AaveETHRouter router, AavePoolRouter pool, uint256 _ethAmount) internal returns (bool) {\r\n        try router.repayETH{value : _ethAmount}(address(pool), _ethAmount, 2, address(this)) {\r\n            return true;\r\n        }\r\n        catch {\r\n            return false;\r\n        }\r\n    }\r\n\r\n    function _repay(uint256 amount) internal returns (bool) {\r\n        return false;\r\n    }\r\n\r\n    function _withdraw(AavePoolRouter pool, address _token, uint256 _amount) internal returns (bool) {\r\n        try pool.withdraw(_token, _amount, address(this)) {\r\n            return true;\r\n        }\r\n        catch {\r\n            return false;\r\n        }\r\n    }\r\n\r\n    // View\r\n    // -------------------------------------------------------------------------\r\n    function getCollateral(address _token) external view returns (uint) {\r\n        return collateralList[_token];\r\n    }\r\n\r\n    function getShort(address _token) external view returns (address, uint, uint) {\r\n        Short memory shorted = shortList[_token];\r\n        return (shorted.token, shorted.amount, shorted.price);\r\n    }\r\n\r\n    receive() external payable {\r\n        emit Receive(msg.sender, msg.value);\r\n    }\r\n}\r\n",
  "sourcePath": "C:\\Users\\Dean\\Desktop\\InteliJ\\sail_contract\\contracts\\SubWallet.sol",
  "compiler": {
    "name": "solc",
    "version": "0.8.14+commit.80d49f37.Emscripten.clang"
  },
  "schemaVersion": "3.4.7",
  "updatedAt": "2022-08-10T09:31:21.311Z",
  "devdoc": {
    "kind": "dev",
    "methods": {},
    "version": 1
  },
  "userdoc": {
    "kind": "user",
    "methods": {},
    "version": 1
  }
}