{
  "contractName": "SubWallet",
  "abi": [
    {
      "inputs": [],
      "stateMutability": "nonpayable",
      "type": "constructor"
    },
    {
      "anonymous": false,
      "inputs": [],
      "name": "ChangeOwner",
      "type": "event"
    },
    {
      "anonymous": false,
      "inputs": [
        {
          "indexed": false,
          "internalType": "address",
          "name": "",
          "type": "address"
        },
        {
          "indexed": false,
          "internalType": "address",
          "name": "",
          "type": "address"
        },
        {
          "indexed": false,
          "internalType": "uint256",
          "name": "",
          "type": "uint256"
        }
      ],
      "name": "Deposit",
      "type": "event"
    },
    {
      "anonymous": false,
      "inputs": [
        {
          "indexed": false,
          "internalType": "address",
          "name": "",
          "type": "address"
        },
        {
          "indexed": false,
          "internalType": "uint256",
          "name": "",
          "type": "uint256"
        }
      ],
      "name": "Receive",
      "type": "event"
    },
    {
      "anonymous": false,
      "inputs": [],
      "name": "ShortEnd",
      "type": "event"
    },
    {
      "anonymous": false,
      "inputs": [],
      "name": "ShortStart",
      "type": "event"
    },
    {
      "anonymous": false,
      "inputs": [
        {
          "indexed": false,
          "internalType": "address",
          "name": "",
          "type": "address"
        },
        {
          "indexed": false,
          "internalType": "uint256",
          "name": "",
          "type": "uint256"
        }
      ],
      "name": "Withdraw",
      "type": "event"
    },
    {
      "stateMutability": "payable",
      "type": "receive"
    },
    {
      "inputs": [
        {
          "internalType": "address",
          "name": "_initOwner",
          "type": "address"
        },
        {
          "internalType": "address",
          "name": "_uni",
          "type": "address"
        },
        {
          "internalType": "address",
          "name": "_ethAllow",
          "type": "address"
        },
        {
          "internalType": "address",
          "name": "_aaveEth",
          "type": "address"
        },
        {
          "internalType": "address",
          "name": "_aavePool",
          "type": "address"
        },
        {
          "internalType": "address[]",
          "name": "_deposit",
          "type": "address[]"
        },
        {
          "internalType": "address[]",
          "name": "_short",
          "type": "address[]"
        }
      ],
      "name": "initialize",
      "outputs": [],
      "stateMutability": "nonpayable",
      "type": "function"
    },
    {
      "inputs": [
        {
          "internalType": "address",
          "name": "_to",
          "type": "address"
        },
        {
          "internalType": "uint256",
          "name": "_amount",
          "type": "uint256"
        }
      ],
      "name": "approveEth",
      "outputs": [],
      "stateMutability": "nonpayable",
      "type": "function"
    },
    {
      "inputs": [
        {
          "internalType": "address",
          "name": "_token",
          "type": "address"
        },
        {
          "internalType": "address",
          "name": "_to",
          "type": "address"
        },
        {
          "internalType": "uint256",
          "name": "_amount",
          "type": "uint256"
        }
      ],
      "name": "approveTo",
      "outputs": [],
      "stateMutability": "nonpayable",
      "type": "function"
    },
    {
      "inputs": [
        {
          "internalType": "address",
          "name": "_token",
          "type": "address"
        },
        {
          "internalType": "uint256",
          "name": "_amount",
          "type": "uint256"
        }
      ],
      "name": "depositToken",
      "outputs": [],
      "stateMutability": "nonpayable",
      "type": "function"
    },
    {
      "inputs": [
        {
          "internalType": "address",
          "name": "_token",
          "type": "address"
        },
        {
          "internalType": "uint256",
          "name": "_amount",
          "type": "uint256"
        }
      ],
      "name": "withdrawToken",
      "outputs": [],
      "stateMutability": "nonpayable",
      "type": "function"
    },
    {
      "inputs": [
        {
          "internalType": "address",
          "name": "_collateralToken",
          "type": "address"
        },
        {
          "internalType": "uint256",
          "name": "_collateralAmount",
          "type": "uint256"
        },
        {
          "internalType": "uint256",
          "name": "_ethAmount",
          "type": "uint256"
        }
      ],
      "name": "shortStartETH",
      "outputs": [],
      "stateMutability": "nonpayable",
      "type": "function"
    },
    {
      "inputs": [
        {
          "internalType": "address",
          "name": "_collateralToken",
          "type": "address"
        },
        {
          "internalType": "uint256",
          "name": "_collateralAmount",
          "type": "uint256"
        },
        {
          "internalType": "address",
          "name": "_shortToken",
          "type": "address"
        },
        {
          "internalType": "uint256",
          "name": "_shortAmount",
          "type": "uint256"
        }
      ],
      "name": "shortStart",
      "outputs": [],
      "stateMutability": "nonpayable",
      "type": "function"
    },
    {
      "inputs": [
        {
          "internalType": "address",
          "name": "_token",
          "type": "address"
        },
        {
          "internalType": "uint256",
          "name": "_ethAmount",
          "type": "uint256"
        }
      ],
      "name": "ethToToken",
      "outputs": [
        {
          "internalType": "uint256[]",
          "name": "",
          "type": "uint256[]"
        }
      ],
      "stateMutability": "nonpayable",
      "type": "function"
    },
    {
      "inputs": [],
      "name": "shortEndETH",
      "outputs": [],
      "stateMutability": "nonpayable",
      "type": "function"
    },
    {
      "inputs": [
        {
          "internalType": "address",
          "name": "_token",
          "type": "address"
        },
        {
          "internalType": "uint256",
          "name": "_ethAmount",
          "type": "uint256"
        }
      ],
      "name": "tokenToEth",
      "outputs": [
        {
          "internalType": "uint256[]",
          "name": "",
          "type": "uint256[]"
        }
      ],
      "stateMutability": "nonpayable",
      "type": "function"
    },
    {
      "inputs": [
        {
          "internalType": "address",
          "name": "_token",
          "type": "address"
        }
      ],
      "name": "getShort",
      "outputs": [
        {
          "internalType": "address",
          "name": "",
          "type": "address"
        },
        {
          "internalType": "uint256",
          "name": "",
          "type": "uint256"
        },
        {
          "internalType": "uint256",
          "name": "",
          "type": "uint256"
        }
      ],
      "stateMutability": "view",
      "type": "function"
    },
    {
      "inputs": [],
      "name": "uniSwapAdd",
      "outputs": [
        {
          "internalType": "address",
          "name": "",
          "type": "address"
        }
      ],
      "stateMutability": "view",
      "type": "function"
    },
    {
      "inputs": [],
      "name": "aavePoolAdd",
      "outputs": [
        {
          "internalType": "address",
          "name": "",
          "type": "address"
        }
      ],
      "stateMutability": "view",
      "type": "function"
    },
    {
      "inputs": [],
      "name": "aaveEthAllowAdd",
      "outputs": [
        {
          "internalType": "address",
          "name": "",
          "type": "address"
        }
      ],
      "stateMutability": "view",
      "type": "function"
    },
    {
      "inputs": [],
      "name": "aaveGateAdd",
      "outputs": [
        {
          "internalType": "address",
          "name": "",
          "type": "address"
        }
      ],
      "stateMutability": "view",
      "type": "function"
    },
    {
      "inputs": [],
      "name": "getDepositList",
      "outputs": [
        {
          "internalType": "address[]",
          "name": "",
          "type": "address[]"
        }
      ],
      "stateMutability": "view",
      "type": "function"
    },
    {
      "inputs": [],
      "name": "getShortList",
      "outputs": [
        {
          "internalType": "address[]",
          "name": "",
          "type": "address[]"
        }
      ],
      "stateMutability": "view",
      "type": "function"
    },
    {
      "inputs": [
        {
          "internalType": "uint256",
          "name": "fee",
          "type": "uint256"
        }
      ],
      "name": "setCommissionFee",
      "outputs": [],
      "stateMutability": "nonpayable",
      "type": "function"
    },
    {
      "inputs": [
        {
          "internalType": "address",
          "name": "newAdd",
          "type": "address"
        }
      ],
      "name": "setUniSwapAdd",
      "outputs": [],
      "stateMutability": "nonpayable",
      "type": "function"
    },
    {
      "inputs": [
        {
          "internalType": "address",
          "name": "newAdd",
          "type": "address"
        }
      ],
      "name": "setAaveEthAllowAdd",
      "outputs": [],
      "stateMutability": "nonpayable",
      "type": "function"
    },
    {
      "inputs": [
        {
          "internalType": "address",
          "name": "newAdd",
          "type": "address"
        }
      ],
      "name": "setAaveLendingAdd",
      "outputs": [],
      "stateMutability": "nonpayable",
      "type": "function"
    },
    {
      "inputs": [
        {
          "internalType": "address",
          "name": "newAdd",
          "type": "address"
        }
      ],
      "name": "setAaveGateWayAdd",
      "outputs": [],
      "stateMutability": "nonpayable",
      "type": "function"
    },
    {
      "inputs": [
        {
          "internalType": "address",
          "name": "newAdd",
          "type": "address"
        }
      ],
      "name": "addDepositTokenAdd",
      "outputs": [],
      "stateMutability": "nonpayable",
      "type": "function"
    },
    {
      "inputs": [
        {
          "internalType": "address",
          "name": "newAdd",
          "type": "address"
        }
      ],
      "name": "addShortTokenAdd",
      "outputs": [],
      "stateMutability": "nonpayable",
      "type": "function"
    }
  ],
  "bytecode": "0x6080604052603260075534801561001557600080fd5b5060016000806101000a81548160ff021916908315150217905550613ca78061003f6000396000f3fe60806040526004361061014f5760003560e01c80639a0f0104116100b6578063d91efc3b1161006f578063d91efc3b14610496578063da2a7204146104d3578063f1c766f5146104fc578063f506273214610527578063f6cefaa314610550578063fe6808ee146105795761018f565b80639a0f01041461039c5780639e281a98146103c7578063a4360711146103f0578063a4b8df6714610419578063a87b0cb714610442578063be2418961461046d5761018f565b806348cc6a611161010857806348cc6a61146102a257806354c62b7e146102cb5780635a4e7c3a146102f45780635d0fb5f41461030b578063685b034e14610334578063895860e5146103735761018f565b806323bdfea514610194578063258b7ca4146101bf57806327cac41e146101fc578063338b5dea146102255780633fbe44841461024e578063439ee1db146102775761018f565b3661018f577fd6717f327e0cb88b4a97a7f67a453e9258252c34937ccbdd86de7cb840e7def33334604051610185929190612ac3565b60405180910390a1005b600080fd5b3480156101a057600080fd5b506101a96105a4565b6040516101b69190612baa565b60405180910390f35b3480156101cb57600080fd5b506101e660048036038101906101e19190612c38565b610632565b6040516101f39190612d36565b60405180910390f35b34801561020857600080fd5b50610223600480360381019061021e9190612d58565b610904565b005b34801561023157600080fd5b5061024c60048036038101906102479190612c38565b6109d8565b005b34801561025a57600080fd5b5061027560048036038101906102709190612ede565b610b6a565b005b34801561028357600080fd5b5061028c610e2e565b6040516102999190612fb8565b60405180910390f35b3480156102ae57600080fd5b506102c960048036038101906102c49190612d58565b610e58565b005b3480156102d757600080fd5b506102f260048036038101906102ed9190612d58565b610f2c565b005b34801561030057600080fd5b50610309611000565b005b34801561031757600080fd5b50610332600480360381019061032d9190612d58565b6112d0565b005b34801561034057600080fd5b5061035b60048036038101906103569190612d58565b6113a4565b60405161036a93929190612fd3565b60405180910390f35b34801561037f57600080fd5b5061039a6004803603810190610395919061300a565b61147d565b005b3480156103a857600080fd5b506103b1611517565b6040516103be9190612fb8565b60405180910390f35b3480156103d357600080fd5b506103ee60048036038101906103e99190612c38565b611541565b005b3480156103fc57600080fd5b5061041760048036038101906104129190613037565b6116b9565b005b34801561042557600080fd5b50610440600480360381019061043b9190612c38565b611897565b005b34801561044e57600080fd5b506104576119ff565b6040516104649190612baa565b60405180910390f35b34801561047957600080fd5b50610494600480360381019061048f919061308a565b611a8d565b005b3480156104a257600080fd5b506104bd60048036038101906104b89190612c38565b611bf5565b6040516104ca9190612d36565b60405180910390f35b3480156104df57600080fd5b506104fa60048036038101906104f59190612d58565b611e68565b005b34801561050857600080fd5b50610511611f5e565b60405161051e9190612fb8565b60405180910390f35b34801561053357600080fd5b5061054e600480360381019061054991906130f1565b611f88565b005b34801561055c57600080fd5b5061057760048036038101906105729190612d58565b61215f565b005b34801561058557600080fd5b5061058e612255565b60405161059b9190612fb8565b60405180910390f35b6060600680548060200260200160405190810160405280929190818152602001828054801561062857602002820191906000526020600020905b8160009054906101000a900473ffffffffffffffffffffffffffffffffffffffff1673ffffffffffffffffffffffffffffffffffffffff16815260200190600101908083116105de575b5050505050905090565b60606000610640848461227f565b60008151811061065357610652613144565b5b602002602001015190506000600267ffffffffffffffff81111561067a57610679612d9b565b5b6040519080825280602002602001820160405280156106a85781602001602082028036833780820191505090505b50905084816000815181106106c0576106bf613144565b5b602002602001019073ffffffffffffffffffffffffffffffffffffffff16908173ffffffffffffffffffffffffffffffffffffffff1681525050600160009054906101000a900473ffffffffffffffffffffffffffffffffffffffff1673ffffffffffffffffffffffffffffffffffffffff1663ad5c46486040518163ffffffff1660e01b8152600401602060405180830381865afa158015610767573d6000803e3d6000fd5b505050506040513d601f19601f8201168201806040525081019061078b9190613188565b8160018151811061079f5761079e613144565b5b602002602001019073ffffffffffffffffffffffffffffffffffffffff16908173ffffffffffffffffffffffffffffffffffffffff168152505060006064426107e891906131e4565b90506000600160009054906101000a900473ffffffffffffffffffffffffffffffffffffffff1673ffffffffffffffffffffffffffffffffffffffff166318cbafe585888630876040518663ffffffff1660e01b815260040161084f95949392919061323a565b6000604051808303816000875af115801561086e573d6000803e3d6000fd5b505050506040513d6000823e3d601f19601f82011682018060405250810190610897919061336c565b90506000816000815181106108af576108ae613144565b5b6020026020010151036108f7576040517f08c379a00000000000000000000000000000000000000000000000000000000081526004016108ee90613412565b60405180910390fd5b8094505050505092915050565b600060019054906101000a900473ffffffffffffffffffffffffffffffffffffffff1673ffffffffffffffffffffffffffffffffffffffff163373ffffffffffffffffffffffffffffffffffffffff1614610994576040517f08c379a000000000000000000000000000000000000000000000000000000000815260040161098b9061347e565b60405180910390fd5b80600460006101000a81548173ffffffffffffffffffffffffffffffffffffffff021916908373ffffffffffffffffffffffffffffffffffffffff16021790555050565b8160005b600580549050811015610aa8578173ffffffffffffffffffffffffffffffffffffffff1660058281548110610a1457610a13613144565b5b9060005260206000200160009054906101000a900473ffffffffffffffffffffffffffffffffffffffff1673ffffffffffffffffffffffffffffffffffffffff1614610a95576040517f08c379a0000000000000000000000000000000000000000000000000000000008152600401610a8c906134ea565b60405180910390fd5b8080610aa09061350a565b9150506109dc565b508273ffffffffffffffffffffffffffffffffffffffff166323b872dd3330856040518463ffffffff1660e01b8152600401610ae693929190613552565b6020604051808303816000875af1158015610b05573d6000803e3d6000fd5b505050506040513d601f19601f82011682018060405250810190610b2991906135c1565b507f5548c837ab068cf56a2c2479df0882a4922fd203edb7517321831d95078c5f62833384604051610b5d93929190613552565b60405180910390a1505050565b6000151560008054906101000a900460ff16151514610bbe576040517f08c379a0000000000000000000000000000000000000000000000000000000008152600401610bb59061363a565b60405180910390fd5b600073ffffffffffffffffffffffffffffffffffffffff16600060019054906101000a900473ffffffffffffffffffffffffffffffffffffffff1673ffffffffffffffffffffffffffffffffffffffff1614610c4f576040517f08c379a0000000000000000000000000000000000000000000000000000000008152600401610c46906136a6565b60405180910390fd5b86600060016101000a81548173ffffffffffffffffffffffffffffffffffffffff021916908373ffffffffffffffffffffffffffffffffffffffff16021790555085600160006101000a81548173ffffffffffffffffffffffffffffffffffffffff021916908373ffffffffffffffffffffffffffffffffffffffff16021790555084600460006101000a81548173ffffffffffffffffffffffffffffffffffffffff021916908373ffffffffffffffffffffffffffffffffffffffff16021790555083600360006101000a81548173ffffffffffffffffffffffffffffffffffffffff021916908373ffffffffffffffffffffffffffffffffffffffff16021790555082600260006101000a81548173ffffffffffffffffffffffffffffffffffffffff021916908373ffffffffffffffffffffffffffffffffffffffff1602179055508160059080519060200190610daa9291906129c2565b508060069080519060200190610dc19291906129c2565b506006309080600181540180825580915050600190039060005260206000200160009091909190916101000a81548173ffffffffffffffffffffffffffffffffffffffff021916908373ffffffffffffffffffffffffffffffffffffffff16021790555050505050505050565b6000600160009054906101000a900473ffffffffffffffffffffffffffffffffffffffff16905090565b600060019054906101000a900473ffffffffffffffffffffffffffffffffffffffff1673ffffffffffffffffffffffffffffffffffffffff163373ffffffffffffffffffffffffffffffffffffffff1614610ee8576040517f08c379a0000000000000000000000000000000000000000000000000000000008152600401610edf9061347e565b60405180910390fd5b80600360006101000a81548173ffffffffffffffffffffffffffffffffffffffff021916908373ffffffffffffffffffffffffffffffffffffffff16021790555050565b600060019054906101000a900473ffffffffffffffffffffffffffffffffffffffff1673ffffffffffffffffffffffffffffffffffffffff163373ffffffffffffffffffffffffffffffffffffffff1614610fbc576040517f08c379a0000000000000000000000000000000000000000000000000000000008152600401610fb39061347e565b60405180910390fd5b80600260006101000a81548173ffffffffffffffffffffffffffffffffffffffff021916908373ffffffffffffffffffffffffffffffffffffffff16021790555050565b6000600960003073ffffffffffffffffffffffffffffffffffffffff1673ffffffffffffffffffffffffffffffffffffffff1681526020019081526020016000206040518060600160405290816000820160009054906101000a900473ffffffffffffffffffffffffffffffffffffffff1673ffffffffffffffffffffffffffffffffffffffff1673ffffffffffffffffffffffffffffffffffffffff1681526020016001820154815260200160028201548152505090506110ca81600001518260200151610632565b5060006110da82602001516124a9565b90508061111c576040517f08c379a000000000000000000000000000000000000000000000000000000000815260040161111390613712565b60405180910390fd5b600061116f836000015160086000866000015173ffffffffffffffffffffffffffffffffffffffff1673ffffffffffffffffffffffffffffffffffffffff16815260200190815260200160002054612572565b9050806111b1576040517f08c379a00000000000000000000000000000000000000000000000000000000081526004016111a89061377e565b60405180910390fd5b600060086000856000015173ffffffffffffffffffffffffffffffffffffffff1673ffffffffffffffffffffffffffffffffffffffff168152602001908152602001600020819055506040518060600160405280600073ffffffffffffffffffffffffffffffffffffffff168152602001600081526020016000815250600960003073ffffffffffffffffffffffffffffffffffffffff1673ffffffffffffffffffffffffffffffffffffffff16815260200190815260200160002060008201518160000160006101000a81548173ffffffffffffffffffffffffffffffffffffffff021916908373ffffffffffffffffffffffffffffffffffffffff1602179055506020820151816001015560408201518160020155905050505050565b600060019054906101000a900473ffffffffffffffffffffffffffffffffffffffff1673ffffffffffffffffffffffffffffffffffffffff163373ffffffffffffffffffffffffffffffffffffffff1614611360576040517f08c379a00000000000000000000000000000000000000000000000000000000081526004016113579061347e565b60405180910390fd5b80600160006101000a81548173ffffffffffffffffffffffffffffffffffffffff021916908373ffffffffffffffffffffffffffffffffffffffff16021790555050565b600080600080600960008673ffffffffffffffffffffffffffffffffffffffff1673ffffffffffffffffffffffffffffffffffffffff1681526020019081526020016000206040518060600160405290816000820160009054906101000a900473ffffffffffffffffffffffffffffffffffffffff1673ffffffffffffffffffffffffffffffffffffffff1673ffffffffffffffffffffffffffffffffffffffff168152602001600182015481526020016002820154815250509050806000015181602001518260400151935093509350509193909250565b600060019054906101000a900473ffffffffffffffffffffffffffffffffffffffff1673ffffffffffffffffffffffffffffffffffffffff163373ffffffffffffffffffffffffffffffffffffffff161461150d576040517f08c379a00000000000000000000000000000000000000000000000000000000081526004016115049061347e565b60405180910390fd5b8060078190555050565b6000600360009054906101000a900473ffffffffffffffffffffffffffffffffffffffff16905090565b808273ffffffffffffffffffffffffffffffffffffffff166370a08231306040518263ffffffff1660e01b815260040161157b9190612fb8565b602060405180830381865afa158015611598573d6000803e3d6000fd5b505050506040513d601f19601f820116820180604052508101906115bc919061379e565b10156115fd576040517f08c379a00000000000000000000000000000000000000000000000000000000081526004016115f490613817565b60405180910390fd5b8173ffffffffffffffffffffffffffffffffffffffff1663a9059cbb33836040518363ffffffff1660e01b8152600401611638929190612ac3565b6020604051808303816000875af1158015611657573d6000803e3d6000fd5b505050506040513d601f19601f8201168201806040525081019061167b91906135c1565b507f884edad9ce6fa2440d8a54cc123490eb96d2768479d49ff9c7366125a942436482826040516116ad929190612ac3565b60405180910390a15050565b60006116c58484612628565b905080611707576040517f08c379a00000000000000000000000000000000000000000000000000000000081526004016116fe90613883565b60405180910390fd5b82600860008673ffffffffffffffffffffffffffffffffffffffff1673ffffffffffffffffffffffffffffffffffffffff168152602001908152602001600020819055506000611756836126cf565b905080611798576040517f08c379a000000000000000000000000000000000000000000000000000000000815260040161178f906138ef565b60405180910390fd5b60006117a48685611bf5565b6001815181106117b7576117b6613144565b5b6020026020010151905060405180606001604052808773ffffffffffffffffffffffffffffffffffffffff16815260200185815260200182815250600960003073ffffffffffffffffffffffffffffffffffffffff1673ffffffffffffffffffffffffffffffffffffffff16815260200190815260200160002060008201518160000160006101000a81548173ffffffffffffffffffffffffffffffffffffffff021916908373ffffffffffffffffffffffffffffffffffffffff1602179055506020820151816001015560408201518160020155905050505050505050565b6000600460009054906101000a900473ffffffffffffffffffffffffffffffffffffffff1673ffffffffffffffffffffffffffffffffffffffff1662030d4084846040516024016118e9929190612ac3565b6040516020818303038152906040527fc04a8a10000000000000000000000000000000000000000000000000000000007bffffffffffffffffffffffffffffffffffffffffffffffffffffffff19166020820180517bffffffffffffffffffffffffffffffffffffffffffffffffffffffff83818316178352505050506040516119739190613989565b60006040518083038160008787f1925050503d80600081146119b1576040519150601f19603f3d011682016040523d82523d6000602084013e6119b6565b606091505b50509050806119fa576040517f08c379a00000000000000000000000000000000000000000000000000000000081526004016119f1906139ec565b60405180910390fd5b505050565b60606005805480602002602001604051908101604052809291908181526020018280548015611a8357602002820191906000526020600020905b8160009054906101000a900473ffffffffffffffffffffffffffffffffffffffff1673ffffffffffffffffffffffffffffffffffffffff1681526020019060010190808311611a39575b5050505050905090565b600060019054906101000a900473ffffffffffffffffffffffffffffffffffffffff1673ffffffffffffffffffffffffffffffffffffffff163373ffffffffffffffffffffffffffffffffffffffff1614611b1d576040517f08c379a0000000000000000000000000000000000000000000000000000000008152600401611b149061347e565b60405180910390fd5b8160005b600680549050811015611bed578173ffffffffffffffffffffffffffffffffffffffff1660068281548110611b5957611b58613144565b5b9060005260206000200160009054906101000a900473ffffffffffffffffffffffffffffffffffffffff1673ffffffffffffffffffffffffffffffffffffffff1614611bda576040517f08c379a0000000000000000000000000000000000000000000000000000000008152600401611bd1906134ea565b60405180910390fd5b8080611be59061350a565b915050611b21565b505050505050565b60606000611c038484612798565b600181518110611c1657611c15613144565b5b602002602001015190506000600267ffffffffffffffff811115611c3d57611c3c612d9b565b5b604051908082528060200260200182016040528015611c6b5781602001602082028036833780820191505090505b509050600160009054906101000a900473ffffffffffffffffffffffffffffffffffffffff1673ffffffffffffffffffffffffffffffffffffffff1663ad5c46486040518163ffffffff1660e01b8152600401602060405180830381865afa158015611cdb573d6000803e3d6000fd5b505050506040513d601f19601f82011682018060405250810190611cff9190613188565b81600081518110611d1357611d12613144565b5b602002602001019073ffffffffffffffffffffffffffffffffffffffff16908173ffffffffffffffffffffffffffffffffffffffff16815250508481600181518110611d6257611d61613144565b5b602002602001019073ffffffffffffffffffffffffffffffffffffffff16908173ffffffffffffffffffffffffffffffffffffffff16815250506000606442611dab91906131e4565b90506000600160009054906101000a900473ffffffffffffffffffffffffffffffffffffffff1673ffffffffffffffffffffffffffffffffffffffff16637ff36ab587868630876040518663ffffffff1660e01b8152600401611e119493929190613a6b565b60006040518083038185885af1158015611e2f573d6000803e3d6000fd5b50505050506040513d6000823e3d601f19601f82011682018060405250810190611e59919061336c565b90508094505050505092915050565b600060019054906101000a900473ffffffffffffffffffffffffffffffffffffffff1673ffffffffffffffffffffffffffffffffffffffff163373ffffffffffffffffffffffffffffffffffffffff1614611ef8576040517f08c379a0000000000000000000000000000000000000000000000000000000008152600401611eef9061347e565b60405180910390fd5b6006819080600181540180825580915050600190039060005260206000200160009091909190916101000a81548173ffffffffffffffffffffffffffffffffffffffff021916908373ffffffffffffffffffffffffffffffffffffffff16021790555050565b6000600260009054906101000a900473ffffffffffffffffffffffffffffffffffffffff16905090565b600060019054906101000a900473ffffffffffffffffffffffffffffffffffffffff1673ffffffffffffffffffffffffffffffffffffffff163373ffffffffffffffffffffffffffffffffffffffff1614612018576040517f08c379a000000000000000000000000000000000000000000000000000000000815260040161200f9061347e565b60405180910390fd5b60008373ffffffffffffffffffffffffffffffffffffffff1662030d408484604051602401612048929190612ac3565b6040516020818303038152906040527f095ea7b3000000000000000000000000000000000000000000000000000000007bffffffffffffffffffffffffffffffffffffffffffffffffffffffff19166020820180517bffffffffffffffffffffffffffffffffffffffffffffffffffffffff83818316178352505050506040516120d29190613989565b60006040518083038160008787f1925050503d8060008114612110576040519150601f19603f3d011682016040523d82523d6000602084013e612115565b606091505b5050905080612159576040517f08c379a0000000000000000000000000000000000000000000000000000000008152600401612150906139ec565b60405180910390fd5b50505050565b600060019054906101000a900473ffffffffffffffffffffffffffffffffffffffff1673ffffffffffffffffffffffffffffffffffffffff163373ffffffffffffffffffffffffffffffffffffffff16146121ef576040517f08c379a00000000000000000000000000000000000000000000000000000000081526004016121e69061347e565b60405180910390fd5b6005819080600181540180825580915050600190039060005260206000200160009091909190916101000a81548173ffffffffffffffffffffffffffffffffffffffff021916908373ffffffffffffffffffffffffffffffffffffffff16021790555050565b6000600460009054906101000a900473ffffffffffffffffffffffffffffffffffffffff16905090565b60606000600267ffffffffffffffff81111561229e5761229d612d9b565b5b6040519080825280602002602001820160405280156122cc5781602001602082028036833780820191505090505b50905083816000815181106122e4576122e3613144565b5b602002602001019073ffffffffffffffffffffffffffffffffffffffff16908173ffffffffffffffffffffffffffffffffffffffff1681525050600160009054906101000a900473ffffffffffffffffffffffffffffffffffffffff1673ffffffffffffffffffffffffffffffffffffffff1663ad5c46486040518163ffffffff1660e01b8152600401602060405180830381865afa15801561238b573d6000803e3d6000fd5b505050506040513d601f19601f820116820180604052508101906123af9190613188565b816001815181106123c3576123c2613144565b5b602002602001019073ffffffffffffffffffffffffffffffffffffffff16908173ffffffffffffffffffffffffffffffffffffffff1681525050600160009054906101000a900473ffffffffffffffffffffffffffffffffffffffff1673ffffffffffffffffffffffffffffffffffffffff16631f00ca7484836040518363ffffffff1660e01b815260040161245a929190613ab7565b600060405180830381865afa158015612477573d6000803e3d6000fd5b505050506040513d6000823e3d601f19601f820116820180604052508101906124a0919061336c565b91505092915050565b6000600360009054906101000a900473ffffffffffffffffffffffffffffffffffffffff1673ffffffffffffffffffffffffffffffffffffffff166302c5fcf883600260009054906101000a900473ffffffffffffffffffffffffffffffffffffffff16856002306040518663ffffffff1660e01b81526004016125309493929190613b22565b6000604051808303818588803b15801561254957600080fd5b505af19350505050801561255b575060015b612568576000905061256d565b600190505b919050565b6000600260009054906101000a900473ffffffffffffffffffffffffffffffffffffffff1673ffffffffffffffffffffffffffffffffffffffff166369328dec8484306040518463ffffffff1660e01b81526004016125d393929190613b67565b6020604051808303816000875af192505050801561260f57506040513d601f19601f8201168201806040525081019061260c919061379e565b60015b61261c5760009050612622565b50600190505b92915050565b6000600260009054906101000a900473ffffffffffffffffffffffffffffffffffffffff1673ffffffffffffffffffffffffffffffffffffffff1663e8eda9df84843060006040518563ffffffff1660e01b815260040161268c9493929190613be7565b600060405180830381600087803b1580156126a657600080fd5b505af19250505080156126b7575060015b6126c457600090506126c9565b600190505b92915050565b6000600360009054906101000a900473ffffffffffffffffffffffffffffffffffffffff1673ffffffffffffffffffffffffffffffffffffffff166366514c97600260009054906101000a900473ffffffffffffffffffffffffffffffffffffffff1684600260006040518563ffffffff1660e01b81526004016127569493929190613c2c565b600060405180830381600087803b15801561277057600080fd5b505af1925050508015612781575060015b61278e5760009050612793565b600190505b919050565b60606000600267ffffffffffffffff8111156127b7576127b6612d9b565b5b6040519080825280602002602001820160405280156127e55781602001602082028036833780820191505090505b509050600160009054906101000a900473ffffffffffffffffffffffffffffffffffffffff1673ffffffffffffffffffffffffffffffffffffffff1663ad5c46486040518163ffffffff1660e01b8152600401602060405180830381865afa158015612855573d6000803e3d6000fd5b505050506040513d601f19601f820116820180604052508101906128799190613188565b8160008151811061288d5761288c613144565b5b602002602001019073ffffffffffffffffffffffffffffffffffffffff16908173ffffffffffffffffffffffffffffffffffffffff168152505083816001815181106128dc576128db613144565b5b602002602001019073ffffffffffffffffffffffffffffffffffffffff16908173ffffffffffffffffffffffffffffffffffffffff1681525050600160009054906101000a900473ffffffffffffffffffffffffffffffffffffffff1673ffffffffffffffffffffffffffffffffffffffff1663d06ca61f84836040518363ffffffff1660e01b8152600401612973929190613ab7565b600060405180830381865afa158015612990573d6000803e3d6000fd5b505050506040513d6000823e3d601f19601f820116820180604052508101906129b9919061336c565b91505092915050565b828054828255906000526020600020908101928215612a3b579160200282015b82811115612a3a5782518260006101000a81548173ffffffffffffffffffffffffffffffffffffffff021916908373ffffffffffffffffffffffffffffffffffffffff160217905550916020019190600101906129e2565b5b509050612a489190612a4c565b5090565b5b80821115612a65576000816000905550600101612a4d565b5090565b600073ffffffffffffffffffffffffffffffffffffffff82169050919050565b6000612a9482612a69565b9050919050565b612aa481612a89565b82525050565b6000819050919050565b612abd81612aaa565b82525050565b6000604082019050612ad86000830185612a9b565b612ae56020830184612ab4565b9392505050565b600081519050919050565b600082825260208201905092915050565b6000819050602082019050919050565b612b2181612a89565b82525050565b6000612b338383612b18565b60208301905092915050565b6000602082019050919050565b6000612b5782612aec565b612b618185612af7565b9350612b6c83612b08565b8060005b83811015612b9d578151612b848882612b27565b9750612b8f83612b3f565b925050600181019050612b70565b5085935050505092915050565b60006020820190508181036000830152612bc48184612b4c565b905092915050565b6000604051905090565b600080fd5b600080fd5b612be981612a89565b8114612bf457600080fd5b50565b600081359050612c0681612be0565b92915050565b612c1581612aaa565b8114612c2057600080fd5b50565b600081359050612c3281612c0c565b92915050565b60008060408385031215612c4f57612c4e612bd6565b5b6000612c5d85828601612bf7565b9250506020612c6e85828601612c23565b9150509250929050565b600081519050919050565b600082825260208201905092915050565b6000819050602082019050919050565b612cad81612aaa565b82525050565b6000612cbf8383612ca4565b60208301905092915050565b6000602082019050919050565b6000612ce382612c78565b612ced8185612c83565b9350612cf883612c94565b8060005b83811015612d29578151612d108882612cb3565b9750612d1b83612ccb565b925050600181019050612cfc565b5085935050505092915050565b60006020820190508181036000830152612d508184612cd8565b905092915050565b600060208284031215612d6e57612d6d612bd6565b5b6000612d7c84828501612bf7565b91505092915050565b600080fd5b6000601f19601f8301169050919050565b7f4e487b7100000000000000000000000000000000000000000000000000000000600052604160045260246000fd5b612dd382612d8a565b810181811067ffffffffffffffff82111715612df257612df1612d9b565b5b80604052505050565b6000612e05612bcc565b9050612e118282612dca565b919050565b600067ffffffffffffffff821115612e3157612e30612d9b565b5b602082029050602081019050919050565b600080fd5b6000612e5a612e5584612e16565b612dfb565b90508083825260208201905060208402830185811115612e7d57612e7c612e42565b5b835b81811015612ea65780612e928882612bf7565b845260208401935050602081019050612e7f565b5050509392505050565b600082601f830112612ec557612ec4612d85565b5b8135612ed5848260208601612e47565b91505092915050565b600080600080600080600060e0888a031215612efd57612efc612bd6565b5b6000612f0b8a828b01612bf7565b9750506020612f1c8a828b01612bf7565b9650506040612f2d8a828b01612bf7565b9550506060612f3e8a828b01612bf7565b9450506080612f4f8a828b01612bf7565b93505060a088013567ffffffffffffffff811115612f7057612f6f612bdb565b5b612f7c8a828b01612eb0565b92505060c088013567ffffffffffffffff811115612f9d57612f9c612bdb565b5b612fa98a828b01612eb0565b91505092959891949750929550565b6000602082019050612fcd6000830184612a9b565b92915050565b6000606082019050612fe86000830186612a9b565b612ff56020830185612ab4565b6130026040830184612ab4565b949350505050565b6000602082840312156130205761301f612bd6565b5b600061302e84828501612c23565b91505092915050565b6000806000606084860312156130505761304f612bd6565b5b600061305e86828701612bf7565b935050602061306f86828701612c23565b925050604061308086828701612c23565b9150509250925092565b600080600080608085870312156130a4576130a3612bd6565b5b60006130b287828801612bf7565b94505060206130c387828801612c23565b93505060406130d487828801612bf7565b92505060606130e587828801612c23565b91505092959194509250565b60008060006060848603121561310a57613109612bd6565b5b600061311886828701612bf7565b935050602061312986828701612bf7565b925050604061313a86828701612c23565b9150509250925092565b7f4e487b7100000000000000000000000000000000000000000000000000000000600052603260045260246000fd5b60008151905061318281612be0565b92915050565b60006020828403121561319e5761319d612bd6565b5b60006131ac84828501613173565b91505092915050565b7f4e487b7100000000000000000000000000000000000000000000000000000000600052601160045260246000fd5b60006131ef82612aaa565b91506131fa83612aaa565b9250827fffffffffffffffffffffffffffffffffffffffffffffffffffffffffffffffff0382111561322f5761322e6131b5565b5b828201905092915050565b600060a08201905061324f6000830188612ab4565b61325c6020830187612ab4565b818103604083015261326e8186612b4c565b905061327d6060830185612a9b565b61328a6080830184612ab4565b9695505050505050565b600067ffffffffffffffff8211156132af576132ae612d9b565b5b602082029050602081019050919050565b6000815190506132cf81612c0c565b92915050565b60006132e86132e384613294565b612dfb565b9050808382526020820190506020840283018581111561330b5761330a612e42565b5b835b81811015613334578061332088826132c0565b84526020840193505060208101905061330d565b5050509392505050565b600082601f83011261335357613352612d85565b5b81516133638482602086016132d5565b91505092915050565b60006020828403121561338257613381612bd6565b5b600082015167ffffffffffffffff8111156133a05761339f612bdb565b5b6133ac8482850161333e565b91505092915050565b600082825260208201905092915050565b7f544f4b454e203d3e20455448204641494c000000000000000000000000000000600082015250565b60006133fc6011836133b5565b9150613407826133c6565b602082019050919050565b6000602082019050818103600083015261342b816133ef565b9050919050565b7f4552524f523a204f6e6c79204f776e6572000000000000000000000000000000600082015250565b60006134686011836133b5565b915061347382613432565b602082019050919050565b600060208201905081810360008301526134978161345b565b9050919050565b7f4e6f742056616c696420546f6b656e0000000000000000000000000000000000600082015250565b60006134d4600f836133b5565b91506134df8261349e565b602082019050919050565b60006020820190508181036000830152613503816134c7565b9050919050565b600061351582612aaa565b91507fffffffffffffffffffffffffffffffffffffffffffffffffffffffffffffffff8203613547576135466131b5565b5b600182019050919050565b60006060820190506135676000830186612a9b565b6135746020830185612a9b565b6135816040830184612ab4565b949350505050565b60008115159050919050565b61359e81613589565b81146135a957600080fd5b50565b6000815190506135bb81613595565b92915050565b6000602082840312156135d7576135d6612bd6565b5b60006135e5848285016135ac565b91505092915050565b7f5468697320697320746865206261736520636f6e747261637400000000000000600082015250565b60006136246019836133b5565b915061362f826135ee565b602082019050919050565b6000602082019050818103600083015261365381613617565b9050919050565b7f416c726561647920696e697469616c697a656400000000000000000000000000600082015250565b60006136906013836133b5565b915061369b8261365a565b602082019050919050565b600060208201905081810360008301526136bf81613683565b9050919050565b7f5265706179204661696c00000000000000000000000000000000000000000000600082015250565b60006136fc600a836133b5565b9150613707826136c6565b602082019050919050565b6000602082019050818103600083015261372b816136ef565b9050919050565b7f5769746864726177204661696c00000000000000000000000000000000000000600082015250565b6000613768600d836133b5565b915061377382613732565b602082019050919050565b600060208201905081810360008301526137978161375b565b9050919050565b6000602082840312156137b4576137b3612bd6565b5b60006137c2848285016132c0565b91505092915050565b7f4e6f7420656e6f75676820746f6b656e00000000000000000000000000000000600082015250565b60006138016010836133b5565b915061380c826137cb565b602082019050919050565b60006020820190508181036000830152613830816137f4565b9050919050565b7f537570706c79204661696c656400000000000000000000000000000000000000600082015250565b600061386d600d836133b5565b915061387882613837565b602082019050919050565b6000602082019050818103600083015261389c81613860565b9050919050565b7f426f72726f77204661696c656400000000000000000000000000000000000000600082015250565b60006138d9600d836133b5565b91506138e4826138a3565b602082019050919050565b60006020820190508181036000830152613908816138cc565b9050919050565b600081519050919050565b600081905092915050565b60005b83811015613943578082015181840152602081019050613928565b83811115613952576000848401525b50505050565b60006139638261390f565b61396d818561391a565b935061397d818560208601613925565b80840191505092915050565b60006139958284613958565b915081905092915050565b7f4641494c45440000000000000000000000000000000000000000000000000000600082015250565b60006139d66006836133b5565b91506139e1826139a0565b602082019050919050565b60006020820190508181036000830152613a05816139c9565b9050919050565b6000819050919050565b6000613a31613a2c613a2784612a69565b613a0c565b612a69565b9050919050565b6000613a4382613a16565b9050919050565b6000613a5582613a38565b9050919050565b613a6581613a4a565b82525050565b6000608082019050613a806000830187612ab4565b8181036020830152613a928186612b4c565b9050613aa16040830185613a5c565b613aae6060830184612ab4565b95945050505050565b6000604082019050613acc6000830185612ab4565b8181036020830152613ade8184612b4c565b90509392505050565b6000819050919050565b6000613b0c613b07613b0284613ae7565b613a0c565b612aaa565b9050919050565b613b1c81613af1565b82525050565b6000608082019050613b376000830187612a9b565b613b446020830186612ab4565b613b516040830185613b13565b613b5e6060830184612a9b565b95945050505050565b6000606082019050613b7c6000830186612a9b565b613b896020830185612ab4565b613b966040830184612a9b565b949350505050565b6000819050919050565b600061ffff82169050919050565b6000613bd1613bcc613bc784613b9e565b613a0c565b613ba8565b9050919050565b613be181613bb6565b82525050565b6000608082019050613bfc6000830187612a9b565b613c096020830186612ab4565b613c166040830185612a9b565b613c236060830184613bd8565b95945050505050565b6000608082019050613c416000830187612a9b565b613c4e6020830186612ab4565b613c5b6040830185613b13565b613c686060830184613bd8565b9594505050505056fea2646970667358221220cb4c29e84c737b2df037600a3fc4dc73c9ae976a4cba9274168d6a1239e4c7cc64736f6c634300080e0033",
  "immutableReferences": {},
  "source": "// SPDX-License-Identifier: MIT\r\npragma solidity >=0.7.0 <0.9.0;\r\n\r\nimport \"@openzeppelin/contracts/access/Ownable.sol\";\r\nimport \"@openzeppelin/contracts/token/ERC20/utils/SafeERC20.sol\";\r\n\r\ninterface UniswapV2Router {\r\n    function WETH() external pure returns (address);\r\n\r\n    function getAmountsOut(uint amountIn, address[] memory path) external view returns (uint[] memory amounts);\r\n\r\n    function getAmountsIn(uint amountOut, address[] memory path) external view returns (uint[] memory amounts);\r\n\r\n    // ETH to DAI\r\n    function swapExactETHForTokens(uint amountOutMin, address[] calldata path, address to, uint deadline)\r\n    external\r\n    payable\r\n    returns (uint[] memory amounts);\r\n\r\n    // DAI to ETH\r\n    function swapExactTokensForETH(uint amountIn, uint amountOutMin, address[] calldata path, address to, uint deadline)\r\n    external\r\n    returns (uint[] memory amounts);\r\n}\r\n\r\ninterface AaveETHRouter {\r\n    function depositETH(\r\n        address lendingPool,\r\n        address onBehalfOf,\r\n        uint16 referralCode\r\n    ) external payable;\r\n\r\n    function withdrawETH(\r\n        address lendingPool,\r\n        uint256 amount,\r\n        address onBehalfOf\r\n    ) external;\r\n\r\n    function repayETH(\r\n        address lendingPool,\r\n        uint256 amount,\r\n        uint256 rateMode,\r\n        address onBehalfOf\r\n    ) external payable;\r\n\r\n    function borrowETH(\r\n        address lendingPool,\r\n        uint256 amount,\r\n        uint256 interesRateMode,\r\n        uint16 referralCode\r\n    ) external;\r\n}\r\n\r\ninterface AavePoolRouter {\r\n    function deposit(\r\n        address asset,\r\n        uint256 amount,\r\n        address onBehalfOf,\r\n        uint16 referralCode\r\n    ) external;\r\n\r\n    function withdraw(\r\n        address asset,\r\n        uint256 amount,\r\n        address to\r\n    ) external returns (uint256);\r\n\r\n    function borrow(\r\n        address asset,\r\n        uint256 amount,\r\n        uint256 interestRateMode,\r\n        uint16 referralCode,\r\n        address onBehalfOf\r\n    ) external;\r\n\r\n    function repay(\r\n        address asset,\r\n        uint256 amount,\r\n        uint256 rateMode,\r\n        address onBehalfOf\r\n    ) external returns (uint256);\r\n}\r\n\r\ncontract SubWallet {\r\n    // Events\r\n    event Deposit(address, address, uint256);\r\n    event Withdraw(address, uint256);\r\n    event ShortStart();\r\n    event ShortEnd();\r\n    event ChangeOwner();\r\n    event Receive(address, uint256);\r\n\r\n    // Convertor\r\n    using SafeERC20 for IERC20;\r\n\r\n    // Clone\r\n    // -------------------------------------------------------------------------\r\n    bool private _isBase;\r\n\r\n    address private _owner;\r\n    modifier onlyOwner() {\r\n        require(msg.sender == _owner, \"ERROR: Only Owner\");\r\n        _;\r\n    }\r\n\r\n    constructor() { // base contract\r\n        _isBase = true;\r\n    }\r\n\r\n    // only use at first\r\n    function initialize(address _initOwner, address _uni, address _ethAllow, address _aaveEth, address _aavePool, address[] memory _deposit, address[] memory _short) external {\r\n        require(_isBase == false, \"This is the base contract\");\r\n        require(_owner == address(0), \"Already initialized\");\r\n        _owner = _initOwner;\r\n\r\n        uniSwapRouter = UniswapV2Router(_uni);\r\n        aaveEthAllow = _ethAllow;\r\n        aaveGateWay = AaveETHRouter(_aaveEth);\r\n        aaveLendingPool = AavePoolRouter(_aavePool);\r\n\r\n        depositTokenWhitelist = _deposit;\r\n        shortTokenWhitelist = _short;\r\n        shortTokenWhitelist.push(address(this));\r\n    }\r\n\r\n    // Wallet Field\r\n    // -------------------------------------------------------------------------\r\n    // External\r\n    UniswapV2Router uniSwapRouter;\r\n    AavePoolRouter aaveLendingPool;\r\n    AaveETHRouter aaveGateWay;\r\n    address aaveEthAllow;\r\n    address[] depositTokenWhitelist;\r\n    address[] shortTokenWhitelist;\r\n    uint commissionFee = 50; // 0.5 Percentage\r\n\r\n    // User Info\r\n    mapping(address => uint256) collateralList; // DepositToken => Collateral Amount\r\n    mapping(address => Short) shortList; // ShortToken => Short Amount\r\n    Commission[] commissions; // CollateralToken => Commission\r\n\r\n    struct Short {\r\n        address token; //  \r\n        uint256 amount; //   ETH\r\n        uint256 price; //   Token /    \r\n    }\r\n\r\n    struct Commission {\r\n        address token;\r\n        uint256 fee;\r\n    }\r\n\r\n    // Modifier\r\n    modifier checkDeposit(address _token) {\r\n        for (uint i = 0; i < depositTokenWhitelist.length; i++) {\r\n            require(depositTokenWhitelist[i] == _token, \"Not Valid Token\");\r\n        }\r\n        _;\r\n    }\r\n\r\n    modifier checkShort(address _token) {\r\n        for (uint i = 0; i < shortTokenWhitelist.length; i++) {\r\n            require(shortTokenWhitelist[i] == _token, \"Not Valid Token\");\r\n        }\r\n        _;\r\n    }\r\n\r\n    // Token action\r\n    // -------------------------------------------------------------------------\r\n    function approveEth(address _to, uint256 _amount) external {\r\n        (bool success,) = address(aaveEthAllow).call{gas : 200000}(\r\n            abi.encodeWithSignature(\"approveDelegation(address,uint256)\", _to, _amount)\r\n        );\r\n        require(success, \"FAILED\");\r\n    }\r\n\r\n    function approveTo(address _token, address _to, uint _amount) external onlyOwner {\r\n        (bool success,) = address(_token).call{gas : 200000}(\r\n            abi.encodeWithSignature(\"approve(address,uint256)\", _to, _amount)\r\n        );\r\n        require(success, \"FAILED\");\r\n    }\r\n\r\n    function depositToken(address _token, uint256 _amount) external checkDeposit(_token) {\r\n        IERC20(_token).transferFrom(msg.sender, address(this), _amount);\r\n        emit Deposit(_token, msg.sender, _amount);\r\n    }\r\n\r\n    function withdrawToken(address _token, uint256 _amount) external {\r\n        require(IERC20(_token).balanceOf(address(this)) >= _amount, \"Not enough token\");\r\n        IERC20(_token).transfer(msg.sender, _amount);\r\n        emit Withdraw(_token, _amount);\r\n    }\r\n\r\n    // Product action\r\n    // -------------------------------------------------------------------------\r\n    function shortStartETH(address _collateralToken, uint256 _collateralAmount, uint256 _ethAmount) external {\r\n        bool sResult = supply(_collateralToken, _collateralAmount);\r\n        require(sResult, \"Supply Failed\");\r\n        collateralList[_collateralToken] = _collateralAmount;\r\n\r\n        bool bResult = borrowETH(_ethAmount);\r\n        require(bResult, \"Borrow Failed\");\r\n\r\n        uint changeAmount = ethToToken(_collateralToken, _ethAmount)[1];\r\n        shortList[address(this)] = Short(_collateralToken, _ethAmount, changeAmount);\r\n    }\r\n\r\n    // token to token\r\n    function shortStart(address _collateralToken, uint256 _collateralAmount, address _shortToken, uint256 _shortAmount) external onlyOwner checkShort(_shortToken) {\r\n    }\r\n\r\n    // ETH => DAI\r\n    function ethToToken(address _token, uint256 _ethAmount) public returns (uint[] memory) {\r\n        uint tokenAmount = _getAmountToken(_token, _ethAmount)[1];\r\n        address[] memory path = new address[](2);\r\n        path[0] = uniSwapRouter.WETH();\r\n        path[1] = _token;\r\n        uint deadline = block.timestamp + 100;\r\n\r\n        uint[] memory amounts = uniSwapRouter.swapExactETHForTokens{value : uint(_ethAmount)}(tokenAmount, path, payable(address(this)), deadline);\r\n\r\n        return amounts;\r\n    }\r\n\r\n    function supplyETH() internal returns (bool) {\r\n        return false;\r\n    }\r\n\r\n    function supply(address _token, uint256 _amount) internal returns (bool) {\r\n        try aaveLendingPool.deposit(_token, _amount, address(this), 0) {\r\n            return true;\r\n        }\r\n        catch {\r\n            return false;\r\n        }\r\n    }\r\n\r\n    function borrowETH(uint256 _ethAmount) internal returns (bool) {\r\n        try aaveGateWay.borrowETH(address(aaveLendingPool), _ethAmount, 2, 0) {\r\n            return true;\r\n        }\r\n        catch {\r\n            return false;\r\n        }\r\n    }\r\n\r\n    function borrow(address _token, uint256 _amount) internal returns (bool) {\r\n        return false;\r\n    }\r\n\r\n    function _getAmountToken(address _token, uint256 _ethAmount) internal view returns (uint[] memory) {\r\n        address[] memory path = new address[](2);\r\n        path[0] = uniSwapRouter.WETH();\r\n        path[1] = _token;\r\n\r\n        return uniSwapRouter.getAmountsOut(_ethAmount, path);\r\n    }\r\n\r\n    // -------------------------------------------------------------------------\r\n    function shortEndETH() external {\r\n        Short memory shorted = shortList[address(this)];\r\n        tokenToEth(shorted.token, shorted.amount);\r\n\r\n        bool rResult = _repayETH(shorted.amount);\r\n        require(rResult, \"Repay Fail\");\r\n\r\n        bool wResult = _withdraw(shorted.token, collateralList[shorted.token]);\r\n        require(wResult, \"Withdraw Fail\");\r\n\r\n        collateralList[shorted.token] = 0;\r\n        shortList[address(this)] = Short(address(0), 0, 0);\r\n    }\r\n\r\n    function _repayETH(uint256 _ethAmount) internal returns (bool) {\r\n        try aaveGateWay.repayETH{value : _ethAmount}(address(aaveLendingPool), _ethAmount, 2, address(this)) {\r\n            return true;\r\n        }\r\n        catch {\r\n            return false;\r\n        }\r\n    }\r\n\r\n    function _repay(uint256 amount) internal returns (bool) {\r\n        return false;\r\n    }\r\n\r\n    function _withdraw(address _token, uint256 _amount) internal returns (bool) {\r\n        try aaveLendingPool.withdraw(_token, _amount, address(this)) {\r\n            return true;\r\n        }\r\n        catch {\r\n            return false;\r\n        }\r\n    }\r\n\r\n    // DAI to Token / ETH\r\n    // DAI => ETH\r\n    function tokenToEth(address _token, uint256 _ethAmount) public returns (uint[] memory) {\r\n        uint tokenAmount = _getAmountETH(_token, _ethAmount)[0];\r\n\r\n        address[] memory path = new address[](2);\r\n        path[0] = _token;\r\n        path[1] = uniSwapRouter.WETH();\r\n        uint deadline = block.timestamp + 100;\r\n\r\n        uint[] memory amounts = uniSwapRouter.swapExactTokensForETH(tokenAmount, _ethAmount, path, address(this), deadline);\r\n        require(amounts[0] != 0, \"TOKEN => ETH FAIL\");\r\n\r\n        return amounts;\r\n    }\r\n\r\n    function _getAmountETH(address _token, uint256 _ethAmount) internal view returns (uint[] memory) {\r\n        address[] memory path = new address[](2);\r\n        path[0] = _token;\r\n        path[1] = uniSwapRouter.WETH();\r\n\r\n        return uniSwapRouter.getAmountsIn(_ethAmount, path);\r\n    }\r\n\r\n    // View\r\n    // -------------------------------------------------------------------------\r\n    function getShort(address _token) external view returns (address, uint, uint) {\r\n        Short memory shorted = shortList[_token];\r\n        return (shorted.token, shorted.amount, shorted.price);\r\n    }\r\n\r\n    function uniSwapAdd() external view returns (address) {\r\n        return address(uniSwapRouter);\r\n    }\r\n\r\n    function aavePoolAdd() external view returns (address) {\r\n        return address(aaveLendingPool);\r\n    }\r\n\r\n    function aaveEthAllowAdd() external view returns (address) {\r\n        return address(aaveEthAllow);\r\n    }\r\n\r\n    function aaveGateAdd() external view returns (address) {\r\n        return address(aaveGateWay);\r\n    }\r\n\r\n    function getDepositList() external view returns (address[] memory) {\r\n        return depositTokenWhitelist;\r\n    }\r\n\r\n    function getShortList() external view returns (address[] memory) {\r\n        return shortTokenWhitelist;\r\n    }\r\n\r\n    // Owner Functions\r\n    // -------------------------------------------------------------------------\r\n    function setCommissionFee(uint256 fee) external onlyOwner { // only factory\r\n        commissionFee = fee;\r\n    }\r\n\r\n    function setUniSwapAdd(address newAdd) external onlyOwner {\r\n        uniSwapRouter = UniswapV2Router(newAdd);\r\n    }\r\n\r\n    function setAaveEthAllowAdd(address newAdd) external onlyOwner {\r\n        aaveEthAllow = newAdd;\r\n    }\r\n\r\n    function setAaveLendingAdd(address newAdd) external onlyOwner {\r\n        aaveLendingPool = AavePoolRouter(newAdd);\r\n    }\r\n\r\n    function setAaveGateWayAdd(address newAdd) external onlyOwner {\r\n        aaveGateWay = AaveETHRouter(newAdd);\r\n    }\r\n\r\n    function addDepositTokenAdd(address newAdd) external onlyOwner {\r\n        depositTokenWhitelist.push(newAdd);\r\n    }\r\n\r\n    function addShortTokenAdd(address newAdd) external onlyOwner {\r\n        shortTokenWhitelist.push(newAdd);\r\n    }\r\n\r\n    receive() external payable {\r\n        emit Receive(msg.sender, msg.value);\r\n    }\r\n}\r\n",
  "sourcePath": "C:\\Users\\Dean\\Desktop\\InteliJ\\sail_contract\\contracts\\SubWallet.sol",
  "compiler": {
    "name": "solc",
    "version": "0.8.14+commit.80d49f37.Emscripten.clang"
  },
  "schemaVersion": "3.4.7",
  "updatedAt": "2022-08-03T11:32:49.901Z",
  "devdoc": {
    "kind": "dev",
    "methods": {},
    "version": 1
  },
  "userdoc": {
    "kind": "user",
    "methods": {},
    "version": 1
  }
}