{
  "contractName": "SubWalletFactory",
  "abi": [
    {
      "inputs": [
        {
          "internalType": "address",
          "name": "_baseContract",
          "type": "address"
        },
        {
          "internalType": "address",
          "name": "_uni",
          "type": "address"
        },
        {
          "internalType": "address",
          "name": "_ethAllow",
          "type": "address"
        },
        {
          "internalType": "address",
          "name": "_aaveEth",
          "type": "address"
        },
        {
          "internalType": "address",
          "name": "_aavePool",
          "type": "address"
        },
        {
          "internalType": "address[]",
          "name": "_dWhite",
          "type": "address[]"
        },
        {
          "internalType": "address[]",
          "name": "_sWhite",
          "type": "address[]"
        },
        {
          "internalType": "uint128",
          "name": "_maxSupply",
          "type": "uint128"
        }
      ],
      "stateMutability": "nonpayable",
      "type": "constructor"
    },
    {
      "anonymous": false,
      "inputs": [
        {
          "indexed": false,
          "internalType": "address",
          "name": "_newClone",
          "type": "address"
        },
        {
          "indexed": false,
          "internalType": "address",
          "name": "_owner",
          "type": "address"
        }
      ],
      "name": "CreateClone",
      "type": "event"
    },
    {
      "inputs": [],
      "name": "wallet",
      "outputs": [],
      "stateMutability": "nonpayable",
      "type": "function"
    },
    {
      "inputs": [
        {
          "internalType": "address",
          "name": "_newAdd",
          "type": "address"
        }
      ],
      "name": "setBase",
      "outputs": [],
      "stateMutability": "nonpayable",
      "type": "function"
    },
    {
      "inputs": [
        {
          "internalType": "address",
          "name": "_newAdd",
          "type": "address"
        }
      ],
      "name": "setUni",
      "outputs": [],
      "stateMutability": "nonpayable",
      "type": "function"
    },
    {
      "inputs": [
        {
          "internalType": "address",
          "name": "_newAdd",
          "type": "address"
        }
      ],
      "name": "setAaveEthAllow",
      "outputs": [],
      "stateMutability": "nonpayable",
      "type": "function"
    },
    {
      "inputs": [
        {
          "internalType": "address",
          "name": "_newAdd",
          "type": "address"
        }
      ],
      "name": "setAaveEth",
      "outputs": [],
      "stateMutability": "nonpayable",
      "type": "function"
    },
    {
      "inputs": [
        {
          "internalType": "address",
          "name": "_newAdd",
          "type": "address"
        }
      ],
      "name": "setAavePool",
      "outputs": [],
      "stateMutability": "nonpayable",
      "type": "function"
    },
    {
      "inputs": [
        {
          "internalType": "address",
          "name": "_token",
          "type": "address"
        }
      ],
      "name": "addDepositToken",
      "outputs": [],
      "stateMutability": "nonpayable",
      "type": "function"
    },
    {
      "inputs": [
        {
          "internalType": "address",
          "name": "_token",
          "type": "address"
        }
      ],
      "name": "addShortToken",
      "outputs": [],
      "stateMutability": "nonpayable",
      "type": "function"
    },
    {
      "inputs": [
        {
          "internalType": "uint128",
          "name": "_max",
          "type": "uint128"
        }
      ],
      "name": "setMaxWallet",
      "outputs": [],
      "stateMutability": "nonpayable",
      "type": "function"
    },
    {
      "inputs": [],
      "name": "totalCreated",
      "outputs": [
        {
          "internalType": "uint128",
          "name": "",
          "type": "uint128"
        }
      ],
      "stateMutability": "view",
      "type": "function",
      "constant": true
    },
    {
      "inputs": [],
      "name": "getMaxWallet",
      "outputs": [
        {
          "internalType": "uint128",
          "name": "",
          "type": "uint128"
        }
      ],
      "stateMutability": "view",
      "type": "function",
      "constant": true
    },
    {
      "inputs": [
        {
          "internalType": "address",
          "name": "_user",
          "type": "address"
        }
      ],
      "name": "getWallets",
      "outputs": [
        {
          "internalType": "address[]",
          "name": "",
          "type": "address[]"
        }
      ],
      "stateMutability": "view",
      "type": "function",
      "constant": true
    },
    {
      "inputs": [],
      "name": "owner",
      "outputs": [
        {
          "internalType": "address",
          "name": "",
          "type": "address"
        }
      ],
      "stateMutability": "view",
      "type": "function",
      "constant": true
    }
  ],
  "bytecode": "0x60806040523480156200001157600080fd5b5060405162001a8238038062001a82833981810160405281019062000037919062000558565b336000806101000a81548173ffffffffffffffffffffffffffffffffffffffff021916908373ffffffffffffffffffffffffffffffffffffffff16021790555087600160006101000a81548173ffffffffffffffffffffffffffffffffffffffff021916908373ffffffffffffffffffffffffffffffffffffffff16021790555086600260006101000a81548173ffffffffffffffffffffffffffffffffffffffff021916908373ffffffffffffffffffffffffffffffffffffffff16021790555085600360006101000a81548173ffffffffffffffffffffffffffffffffffffffff021916908373ffffffffffffffffffffffffffffffffffffffff16021790555084600460006101000a81548173ffffffffffffffffffffffffffffffffffffffff021916908373ffffffffffffffffffffffffffffffffffffffff16021790555083600560006101000a81548173ffffffffffffffffffffffffffffffffffffffff021916908373ffffffffffffffffffffffffffffffffffffffff1602179055508260069080519060200190620001d49291906200026f565b508160079080519060200190620001ed9291906200026f565b506000600960006101000a8154816fffffffffffffffffffffffffffffffff02191690836fffffffffffffffffffffffffffffffff16021790555080600960106101000a8154816fffffffffffffffffffffffffffffffff02191690836fffffffffffffffffffffffffffffffff16021790555050505050505050506200065f565b828054828255906000526020600020908101928215620002eb579160200282015b82811115620002ea5782518260006101000a81548173ffffffffffffffffffffffffffffffffffffffff021916908373ffffffffffffffffffffffffffffffffffffffff1602179055509160200191906001019062000290565b5b509050620002fa9190620002fe565b5090565b5b8082111562000319576000816000905550600101620002ff565b5090565b6000604051905090565b600080fd5b600080fd5b600073ffffffffffffffffffffffffffffffffffffffff82169050919050565b60006200035e8262000331565b9050919050565b620003708162000351565b81146200037c57600080fd5b50565b600081519050620003908162000365565b92915050565b600080fd5b6000601f19601f8301169050919050565b7f4e487b7100000000000000000000000000000000000000000000000000000000600052604160045260246000fd5b620003e6826200039b565b810181811067ffffffffffffffff82111715620004085762000407620003ac565b5b80604052505050565b60006200041d6200031d565b90506200042b8282620003db565b919050565b600067ffffffffffffffff8211156200044e576200044d620003ac565b5b602082029050602081019050919050565b600080fd5b60006200047b620004758462000430565b62000411565b90508083825260208201905060208402830185811115620004a157620004a06200045f565b5b835b81811015620004ce5780620004b988826200037f565b845260208401935050602081019050620004a3565b5050509392505050565b600082601f830112620004f057620004ef62000396565b5b81516200050284826020860162000464565b91505092915050565b60006fffffffffffffffffffffffffffffffff82169050919050565b62000532816200050b565b81146200053e57600080fd5b50565b600081519050620005528162000527565b92915050565b600080600080600080600080610100898b0312156200057c576200057b62000327565b5b60006200058c8b828c016200037f565b98505060206200059f8b828c016200037f565b9750506040620005b28b828c016200037f565b9650506060620005c58b828c016200037f565b9550506080620005d88b828c016200037f565b94505060a089015167ffffffffffffffff811115620005fc57620005fb6200032c565b5b6200060a8b828c01620004d8565b93505060c089015167ffffffffffffffff8111156200062e576200062d6200032c565b5b6200063c8b828c01620004d8565b92505060e06200064f8b828c0162000541565b9150509295985092959890939650565b611413806200066f6000396000f3fe608060405234801561001057600080fd5b50600436106100cf5760003560e01c806379e40cba1161008c5780638da5cb5b116100665780638da5cb5b146101d65780639a1f25b5146101f4578063be17fe6214610210578063e838ddff1461022c576100cf565b806379e40cba146101805780637a6826001461019c578063844e0acd146101b8576100cf565b80630fa604e4146100d4578063349f937c146100f2578063422c29a41461010e578063521eb2731461013e5780636f3ca55d14610148578063764c10da14610164575b600080fd5b6100dc610248565b6040516100e99190610e73565b60405180910390f35b61010c60048036038101906101079190610ef1565b61026e565b005b61012860048036038101906101239190610ef1565b610340565b6040516101359190610fdc565b60405180910390f35b61014661040d565b005b610162600480360381019061015d9190610ef1565b61072b565b005b61017e60048036038101906101799190610ef1565b6107fd565b005b61019a60048036038101906101959190610ef1565b6108f1565b005b6101b660048036038101906101b1919061102a565b6109e5565b005b6101c0610aaf565b6040516101cd9190610e73565b60405180910390f35b6101de610ad5565b6040516101eb9190611066565b60405180910390f35b61020e60048036038101906102099190610ef1565b610afe565b005b61022a60048036038101906102259190610ef1565b610bd0565b005b61024660048036038101906102419190610ef1565b610ca2565b005b6000600960109054906101000a90046fffffffffffffffffffffffffffffffff16905090565b60008054906101000a900473ffffffffffffffffffffffffffffffffffffffff1673ffffffffffffffffffffffffffffffffffffffff163373ffffffffffffffffffffffffffffffffffffffff16146102fc576040517f08c379a00000000000000000000000000000000000000000000000000000000081526004016102f3906110de565b60405180910390fd5b80600560006101000a81548173ffffffffffffffffffffffffffffffffffffffff021916908373ffffffffffffffffffffffffffffffffffffffff16021790555050565b6060600860008373ffffffffffffffffffffffffffffffffffffffff1673ffffffffffffffffffffffffffffffffffffffff16815260200190815260200160002080548060200260200160405190810160405280929190818152602001828054801561040157602002820191906000526020600020905b8160009054906101000a900473ffffffffffffffffffffffffffffffffffffffff1673ffffffffffffffffffffffffffffffffffffffff16815260200190600101908083116103b7575b50505050509050919050565b600960109054906101000a90046fffffffffffffffffffffffffffffffff166fffffffffffffffffffffffffffffffff166001600960009054906101000a90046fffffffffffffffffffffffffffffffff16610469919061112d565b6fffffffffffffffffffffffffffffffff1611156104bc576040517f08c379a00000000000000000000000000000000000000000000000000000000081526004016104b3906111bf565b60405180910390fd5b60006104e9600160009054906101000a900473ffffffffffffffffffffffffffffffffffffffff16610d74565b90506001600960009054906101000a90046fffffffffffffffffffffffffffffffff16610516919061112d565b600960006101000a8154816fffffffffffffffffffffffffffffffff02191690836fffffffffffffffffffffffffffffffff160217905550600860003373ffffffffffffffffffffffffffffffffffffffff1673ffffffffffffffffffffffffffffffffffffffff168152602001908152602001600020819080600181540180825580915050600190039060005260206000200160009091909190916101000a81548173ffffffffffffffffffffffffffffffffffffffff021916908373ffffffffffffffffffffffffffffffffffffffff1602179055508073ffffffffffffffffffffffffffffffffffffffff16633fbe448433600260009054906101000a900473ffffffffffffffffffffffffffffffffffffffff16600360009054906101000a900473ffffffffffffffffffffffffffffffffffffffff16600460009054906101000a900473ffffffffffffffffffffffffffffffffffffffff16600560009054906101000a900473ffffffffffffffffffffffffffffffffffffffff16600660076040518863ffffffff1660e01b81526004016106bd97969594939291906112cb565b600060405180830381600087803b1580156106d757600080fd5b505af11580156106eb573d6000803e3d6000fd5b505050507fabf50ca9b6106472cb660a86793cc7b88404d7b924eb2554fb54f2200c54c7588133604051610720929190611348565b60405180910390a150565b60008054906101000a900473ffffffffffffffffffffffffffffffffffffffff1673ffffffffffffffffffffffffffffffffffffffff163373ffffffffffffffffffffffffffffffffffffffff16146107b9576040517f08c379a00000000000000000000000000000000000000000000000000000000081526004016107b0906110de565b60405180910390fd5b80600260006101000a81548173ffffffffffffffffffffffffffffffffffffffff021916908373ffffffffffffffffffffffffffffffffffffffff16021790555050565b60008054906101000a900473ffffffffffffffffffffffffffffffffffffffff1673ffffffffffffffffffffffffffffffffffffffff163373ffffffffffffffffffffffffffffffffffffffff161461088b576040517f08c379a0000000000000000000000000000000000000000000000000000000008152600401610882906110de565b60405180910390fd5b6007819080600181540180825580915050600190039060005260206000200160009091909190916101000a81548173ffffffffffffffffffffffffffffffffffffffff021916908373ffffffffffffffffffffffffffffffffffffffff16021790555050565b60008054906101000a900473ffffffffffffffffffffffffffffffffffffffff1673ffffffffffffffffffffffffffffffffffffffff163373ffffffffffffffffffffffffffffffffffffffff161461097f576040517f08c379a0000000000000000000000000000000000000000000000000000000008152600401610976906110de565b60405180910390fd5b6006819080600181540180825580915050600190039060005260206000200160009091909190916101000a81548173ffffffffffffffffffffffffffffffffffffffff021916908373ffffffffffffffffffffffffffffffffffffffff16021790555050565b60008054906101000a900473ffffffffffffffffffffffffffffffffffffffff1673ffffffffffffffffffffffffffffffffffffffff163373ffffffffffffffffffffffffffffffffffffffff1614610a73576040517f08c379a0000000000000000000000000000000000000000000000000000000008152600401610a6a906110de565b60405180910390fd5b80600960106101000a8154816fffffffffffffffffffffffffffffffff02191690836fffffffffffffffffffffffffffffffff16021790555050565b6000600960009054906101000a90046fffffffffffffffffffffffffffffffff16905090565b60008060009054906101000a900473ffffffffffffffffffffffffffffffffffffffff16905090565b60008054906101000a900473ffffffffffffffffffffffffffffffffffffffff1673ffffffffffffffffffffffffffffffffffffffff163373ffffffffffffffffffffffffffffffffffffffff1614610b8c576040517f08c379a0000000000000000000000000000000000000000000000000000000008152600401610b83906110de565b60405180910390fd5b80600360006101000a81548173ffffffffffffffffffffffffffffffffffffffff021916908373ffffffffffffffffffffffffffffffffffffffff16021790555050565b60008054906101000a900473ffffffffffffffffffffffffffffffffffffffff1673ffffffffffffffffffffffffffffffffffffffff163373ffffffffffffffffffffffffffffffffffffffff1614610c5e576040517f08c379a0000000000000000000000000000000000000000000000000000000008152600401610c55906110de565b60405180910390fd5b80600160006101000a81548173ffffffffffffffffffffffffffffffffffffffff021916908373ffffffffffffffffffffffffffffffffffffffff16021790555050565b60008054906101000a900473ffffffffffffffffffffffffffffffffffffffff1673ffffffffffffffffffffffffffffffffffffffff163373ffffffffffffffffffffffffffffffffffffffff1614610d30576040517f08c379a0000000000000000000000000000000000000000000000000000000008152600401610d27906110de565b60405180910390fd5b80600460006101000a81548173ffffffffffffffffffffffffffffffffffffffff021916908373ffffffffffffffffffffffffffffffffffffffff16021790555050565b60006040517f3d602d80600a3d3981f3363d3d373d3d3d363d7300000000000000000000000081528260601b60148201527f5af43d82803e903d91602b57fd5bf3000000000000000000000000000000000060288201526037816000f0915050600073ffffffffffffffffffffffffffffffffffffffff168173ffffffffffffffffffffffffffffffffffffffff1603610e43576040517f08c379a0000000000000000000000000000000000000000000000000000000008152600401610e3a906113bd565b60405180910390fd5b919050565b60006fffffffffffffffffffffffffffffffff82169050919050565b610e6d81610e48565b82525050565b6000602082019050610e886000830184610e64565b92915050565b600080fd5b600073ffffffffffffffffffffffffffffffffffffffff82169050919050565b6000610ebe82610e93565b9050919050565b610ece81610eb3565b8114610ed957600080fd5b50565b600081359050610eeb81610ec5565b92915050565b600060208284031215610f0757610f06610e8e565b5b6000610f1584828501610edc565b91505092915050565b600081519050919050565b600082825260208201905092915050565b6000819050602082019050919050565b610f5381610eb3565b82525050565b6000610f658383610f4a565b60208301905092915050565b6000602082019050919050565b6000610f8982610f1e565b610f938185610f29565b9350610f9e83610f3a565b8060005b83811015610fcf578151610fb68882610f59565b9750610fc183610f71565b925050600181019050610fa2565b5085935050505092915050565b60006020820190508181036000830152610ff68184610f7e565b905092915050565b61100781610e48565b811461101257600080fd5b50565b60008135905061102481610ffe565b92915050565b6000602082840312156110405761103f610e8e565b5b600061104e84828501611015565b91505092915050565b61106081610eb3565b82525050565b600060208201905061107b6000830184611057565b92915050565b600082825260208201905092915050565b7f6e6f74206f776e65720000000000000000000000000000000000000000000000600082015250565b60006110c8600983611081565b91506110d382611092565b602082019050919050565b600060208201905081810360008301526110f7816110bb565b9050919050565b7f4e487b7100000000000000000000000000000000000000000000000000000000600052601160045260246000fd5b600061113882610e48565b915061114383610e48565b9250826fffffffffffffffffffffffffffffffff03821115611168576111676110fe565b5b828201905092915050565b7f4d61782057616c6c657400000000000000000000000000000000000000000000600082015250565b60006111a9600a83611081565b91506111b482611173565b602082019050919050565b600060208201905081810360008301526111d88161119c565b9050919050565b600081549050919050565b60008190508160005260206000209050919050565b60008160001c9050919050565b600073ffffffffffffffffffffffffffffffffffffffff82169050919050565b600061123f61123a836111ff565b61120c565b9050919050565b6000611252825461122c565b9050919050565b6000600182019050919050565b6000611271826111df565b61127b8185610f29565b9350611286836111ea565b8060005b838110156112be5761129b82611246565b6112a58882610f59565b97506112b083611259565b92505060018101905061128a565b5085935050505092915050565b600060e0820190506112e0600083018a611057565b6112ed6020830189611057565b6112fa6040830188611057565b6113076060830187611057565b6113146080830186611057565b81810360a08301526113268185611266565b905081810360c083015261133a8184611266565b905098975050505050505050565b600060408201905061135d6000830185611057565b61136a6020830184611057565b9392505050565b7f455243313136373a20637265617465206661696c656400000000000000000000600082015250565b60006113a7601683611081565b91506113b282611371565b602082019050919050565b600060208201905081810360008301526113d68161139a565b905091905056fea26469706673582212206b751cc20fbb48088c324657e2a92243b5276c00c43a75a92398d2d8ea47bc3c64736f6c634300080e0033",
  "immutableReferences": {},
  "source": "// SPDX-License-Identifier: MIT\r\npragma solidity ^0.8.0;\r\n\r\ninterface SubWalletRouter {\r\n    function initialize(address _initOwner, address _uni, address _ethAllow, address _aaveEth, address _aavePool, address[] memory _deposit, address[] memory _short) external;\r\n}\r\n\r\ncontract SubWalletFactory {\r\n    // Events ----------------------------------------------\r\n    event CreateClone(address _newClone, address _owner);\r\n\r\n    // Base ------------------------------------------------\r\n    address private _owner;\r\n    modifier onlyOwner {\r\n        require(msg.sender == _owner, \"not owner\");\r\n        _;\r\n    }\r\n    address private baseContract;\r\n\r\n    // External --------------------------------------------\r\n    address uniSwapRouter;\r\n    address aaveEthAllow;\r\n    address aaveGateWay;\r\n    address aaveLendingPool;\r\n\r\n    // Internal --------------------------------------------\r\n    address[] depositWhite;\r\n    address[] shortWhite;\r\n\r\n    mapping(address => address[]) private wallets;\r\n\r\n    uint128 private count;\r\n    uint128 private maxWallet;\r\n\r\n    constructor(address _baseContract, address _uni, address _ethAllow, address _aaveEth, address _aavePool, address[] memory _dWhite, address[] memory _sWhite, uint128 _maxSupply) {\r\n        // ------------------------------\r\n        _owner = msg.sender;\r\n        baseContract = _baseContract;\r\n        // ------------------------------\r\n        uniSwapRouter = _uni;\r\n        aaveEthAllow = _ethAllow;\r\n        aaveGateWay = _aaveEth;\r\n        aaveLendingPool = _aavePool;\r\n        // ------------------------------\r\n        depositWhite = _dWhite;\r\n        shortWhite = _sWhite;\r\n        // ------------------------------\r\n        count = 0;\r\n        maxWallet = _maxSupply;\r\n        // ------------------------------\r\n    }\r\n\r\n    // Func ------------------------------------------------\r\n    function wallet() external {\r\n        require((count + 1) <= maxWallet, \"Max Wallet\");\r\n        address identicalChild = _clone(baseContract);\r\n        count = count + 1;\r\n        wallets[msg.sender].push(identicalChild);\r\n        SubWalletRouter(identicalChild).initialize(msg.sender, uniSwapRouter, aaveEthAllow, aaveGateWay, aaveLendingPool, depositWhite, shortWhite);\r\n        emit CreateClone(identicalChild, msg.sender);\r\n    }\r\n\r\n    function _clone(address _baseContract) internal returns (address instance) {\r\n        assembly {\r\n            let ptr := mload(0x40)\r\n            mstore(ptr, 0x3d602d80600a3d3981f3363d3d373d3d3d363d73000000000000000000000000)\r\n            mstore(add(ptr, 0x14), shl(0x60, _baseContract))\r\n            mstore(add(ptr, 0x28), 0x5af43d82803e903d91602b57fd5bf30000000000000000000000000000000000)\r\n            instance := create(0, ptr, 0x37)\r\n        }\r\n        require(instance != address(0), \"ERC1167: create failed\");\r\n    }\r\n\r\n    // Owner -----------------------------------------------\r\n    function setBase(address _newAdd) external onlyOwner {\r\n        baseContract = _newAdd;\r\n    }\r\n\r\n    function setUni(address _newAdd) external onlyOwner {\r\n        uniSwapRouter = _newAdd;\r\n    }\r\n\r\n    function setAaveEthAllow(address _newAdd) external onlyOwner {\r\n        aaveEthAllow = _newAdd;\r\n    }\r\n\r\n    function setAaveEth(address _newAdd) external onlyOwner {\r\n        aaveGateWay = _newAdd;\r\n    }\r\n\r\n    function setAavePool(address _newAdd) external onlyOwner {\r\n        aaveLendingPool = _newAdd;\r\n    }\r\n\r\n    function addDepositToken(address _token) external onlyOwner {\r\n        depositWhite.push(_token);\r\n    }\r\n\r\n    function addShortToken(address _token) external onlyOwner {\r\n        shortWhite.push(_token);\r\n    }\r\n\r\n    function setMaxWallet(uint128 _max) external onlyOwner {\r\n        maxWallet = _max;\r\n    }\r\n\r\n    // View ------------------------------------------------\r\n    function totalCreated() external view returns (uint128) {\r\n        return count;\r\n    }\r\n\r\n    function getMaxWallet() external view returns (uint128) {\r\n        return maxWallet;\r\n    }\r\n\r\n    function getWallets(address _user) external view returns (address[] memory) {\r\n        return wallets[_user];\r\n    }\r\n\r\n    function owner() external view returns (address) {\r\n        return _owner;\r\n    }\r\n}",
  "sourcePath": "C:\\Users\\Dean\\Desktop\\InteliJ\\sail_contract\\contracts\\SubWalletFactory.sol",
  "compiler": {
    "name": "solc",
    "version": "0.8.14+commit.80d49f37.Emscripten.clang"
  },
  "schemaVersion": "3.4.7",
  "updatedAt": "2022-08-03T11:33:22.939Z",
  "networkType": "ethereum",
  "devdoc": {
    "kind": "dev",
    "methods": {},
    "version": 1
  },
  "userdoc": {
    "kind": "user",
    "methods": {},
    "version": 1
  }
}